:100000000C9421050C9449050C9449050C94490560
:100010000C9449050C9449050C9449050C94490528
:100020000C9449050C9449050C94D6100C94481175
:100030000C9449050C9449050C9449050C94490508
:100040000C9449050C9449050C9449050C944905F8
:100050000C9449050C9449050C9449050C94BD0772
:100060000C9449050C9449050C9449050C944905D8
:100070000C9449050C9449050C9449050C944905C8
:100080000C9449050C9449050C9449050C944905B8
:100090000C9449050C9449050C9449050C944905A8
:1000A0000C9449050C9449050C9449050D1279DC12
:1000B000BCBCFC780C1278DCBCBCFC783C42A9A926
:1000C00081817E183C42A5A581817E183C42959590
:1000D00081817E183C42818181817E187D2E7D3C0C
:1000E000546A3C287D2E7D3C562A3C287D2E7D3C42
:1000F000566A3C283C283C3C546A3C283C283C3C02
:10010000562A3C283C283C3C566A3C28BE74BE3CDF
:10011000546A3C14BE74BE3C562A3C14BE74BE3CA9
:10012000566A3C143C3C3C3C546A3C283C3C3C3CBD
:10013000562A3C283C3C3C3C566A3C2850210A212B
:100140009840840A00522C2244344A0000102C3A71
:100150005C340800FDFDFDFDFDFD01FF0066FFFFB5
:10016000FF7E3C1880FF3020FF0604FF2020202067
:1001700020202052554E4E45520053454520594FA0
:100180005520414741494E20494E204C4F4445009F
:100190002020202020202052554E4E455200204243
:1001A0004F4D424552204D414E204245434F4D4513
:1001B0005300434F4E47524154554C4154494F4EC2
:1001C00053004C4556454C00010204081020408065
:1001D00000000000003E5B4F5B3E3E6B4F6B3E1CE1
:1001E0003E7C3E1C183C7E3C181C577D571C1C5EF8
:1001F0007F5E1C00183C1800FFE7C3E7FF001824CF
:100200001800FFE7DBE7FF30483A060E2629792978
:1002100026407F050507407F05253F5A3CE73C5AAD
:100220007F3E1C1C08081C1C3E7F14227F22145F8A
:100230005F005F5F06097F017F006689956A6060E5
:1002400060606094A2FFA29408047E040810207EDF
:10025000201008082A1C08081C2A08081E10101064
:10026000100C1E0C1E0C30383E3830060E3E0E06AA
:10027000000000000000005F0000000700070014FD
:100280007F147F14242A7F2A1223130864623649BC
:100290005620500008070300001C224100004122A4
:1002A0001C002A1C7F1C2A08083E080800807030A9
:1002B0000008080808080000606000201008040218
:1002C0003E5149453E00427F40007249494946211E
:1002D00041494D331814127F1027454545393C4A92
:1002E00049493141211109073649494936464949A9
:1002F000291E0000140000004034000000081422F1
:10030000411414141414004122140802015909065E
:100310003E415D594E7C1211127C7F494949363E5F
:10032000414141227F4141413E7F494949417F0945
:100330000909013E414151737F0808087F00417F50
:1003400041002040413F017F081422417F4040404E
:10035000407F021C027F7F0408107F3E4141413EE6
:100360007F090909063E4151215E7F091929462668
:100370004949493203017F01033F4040403F1F206C
:1003800040201F3F4038403F631408146303047843
:1003900004036159494D43007F4141410204081063
:1003A00020004141417F040201020440404040409E
:1003B000000307080020545478407F28444438380C
:1003C00044444428384444287F385454541800087E
:1003D0007E090218A4A49C787F0804047800447D58
:1003E00040002040403D007F1028440000417F40F5
:1003F000007C047804787C08040478384444443849
:10040000FC1824241818242418FC7C080404084828
:100410005454542404043F44243C4040207C1C2079
:1004200040201C3C4030403C44281028444C9090D4
:10043000907C4464544C440008364100000077002E
:1004400000004136080002010204023C2623263C3B
:100450001EA1A161123A4040207A385454555921C6
:1004600055557941215454784121555478402054B0
:100470005579400C1E5272123955555559395454FC
:10048000545939555454580000457C410002457D6B
:10049000420001457C40F0292429F0F0282528F06D
:1004A0007C545545002054547C547C0A097F4932C1
:1004B000494949323248484832324A4848303A413C
:1004C00041217A3A42402078009DA0A07D394444E1
:1004D00044393D4040403D3C24FF2424487E49436C
:1004E000662B2FFC2F2BFF0929F620C0887E0903DD
:1004F00020545479410000447D413048484A323804
:100500004040227A007A0A0A727D0D19317D26292F
:10051000292F28262929292630484D402038080827
:10052000080808080808382F10C8ACBA2F1028345B
:10053000FA00007B000008142A142222142A14084E
:100540009500220095AA005500AAAA55AA55AA000E
:100550000000FF00101010FF00141414FF00101012
:10056000FF00FF1010F010F0141414FC001414F726
:1005700000FF0000FF00FF1414F404FC1414171013
:100580001F10101F101F1414141F00101010F00063
:100590000000001F101010101F10101010F010009D
:1005A0000000FF101010101010101010FF100000AD
:1005B00000FF140000FF00FF00001F10170000FCE8
:1005C00004F414141710171414F404F40000FF00BA
:1005D000F714141414141414F700F7141414171443
:1005E00010101F101F141414F4141010F010F00049
:1005F000001F101F0000001F14000000FC1400006A
:10060000F010F01010FF10FF141414FF141010104D
:100610001F00000000F010FFFFFFFFFFF0F0F0F000
:10062000F0FFFFFF0000000000FFFF0F0F0F0F0F94
:1006300038444438447C2A2A3E147E0202060602CC
:100640007E027E0263554941633844443C04407E47
:10065000201E2006027E020299A5E7A5991C2A49C0
:100660002A1C4C7201724C304A4D4D30304878484B
:1006700030BC625A463D3E494949007E0101017E37
:100680002A2A2A2A2A44445F444440514A4440408A
:10069000444A51400000FF0103E080FF00000808C9
:1006A0006B6B083612362436060F090F0600001849
:1006B000180000001010003040FF0101001F010170
:1006C0001E00191D1712003C3C3C3C0000000000BD
:1006D000D5F08D14A1C881CFD9F1AF200007060550
:1006E000040100080A0B0C0D092A0041424F555421
:1006F00000504C415900722510945E8A251694488A
:10070000AA3D56F5488A2550954873A4A0928800C2
:100710000000040000000002000000000A000000C9
:100720000553F800002EAAA800005500380000313B
:10073000A2A000004000200001E0AAA000014100AA
:1007400030001BA3AAF80015401300000FE00A00B8
:100750000055500A0001BBBA040005555500000FB2
:10076000FFFF800015555540001BBBBB8000155591
:100770005540006FEFEFE00055555550003BBBBBB7
:10078000B0005555555000FFFFFFF8005555555026
:1007900000BBBBBBB8005555555000EFEFEFE8006C
:1007A00055555550003BBBBBB00055555550007FCB
:1007B000FFFFF00015555540003BBBBB80001555B1
:1007C0005540000FEFEF8000055555000001BBB804
:1007D00000000055500000001FC00000FF00000096
:1007E00030000000000000FF0000003000000000AA
:1007F0000000C180000030000000000000C1800047
:100800000030000000000000C18000003000000047
:10081000000000C180000030000000000000C1871F
:100820008FFE3F0F8F3FF0F8FCC1878FFE3F0F8F89
:100830003FF0F8FCFF1CCE673399CE33198CC6FF0E
:100840001CCE673399CE33198CC6C19CCE67339FBB
:10085000CC33187CC6C19CCE6733980C3318CCC6F9
:10086000C19CCE6733980C3318CCC6C19CCE67337D
:10087000980C33198CC6C19CCE6733980C33198CF5
:10088000C6C19CCE673399CC33198CC6C19CCE6748
:100890003399CC33198CC6FF078E673F0F8C331802
:1008A000FCC6FF078E673F0F8C3318FCC6000000A4
:1008B00000000000000000008A028A020A0A880282
:1008C0000888825505044515050411105444808894
:1008D0008A222288882208888241144445111144C2
:1008E00011110444808888202088082008888041CD
:1008F0001444451110041111044480888A2222886E
:1009000008220888824114444511100411104444FF
:1009100080888A02028A8802080882551444451198
:10092000114411110444AA088A2222888A220888C4
:10093000824105055415050515505054808088A83E
:1009400028088828A0A8A841000000100000000086
:100950000000808000002000000000000041000036
:100960000010000000000000808000000000000077
:100970000000005500000010000000000000AA0068
:10098000000020000000000000416E79206B6579B6
:10099000206261636B2E2E2E0000313238313730E9
:1009A000323539344071712E636F6D00452D6D61A4
:1009B000696C004C485720417274004C48572070B5
:1009C000726F6772616D6D696E670000203E4162F3
:1009D0006F757400080B0002020201000904000098
:1009E0000102020000052400100105240101010498
:1009F00024020605240600010705810310004009B2
:100A0000040100020A00000007050202400000077E
:100A10000583024000000403090412010002EF02F2
:100A200001404123368000010102030141726475D7
:100A3000696E6F204C4C430041726475626F79009F
:100A4000E11511241FBECFEFDAE0DEBFCDBF11E00C
:100A5000A0E0B1E0ECECFDE202C005900D92A436FE
:100A6000B107D9F728E0A4E6B1E001C01D92AB328E
:100A7000B207E1F715E0C1E2D5E004C02197FE011D
:100A80000E94D916C032D107C9F70E94B9130C943D
:100A9000E4160C940000CF92DF92EF92FF920F9336
:100AA0001F93CF93DF936C017A018B01C0E0D0E0FC
:100AB000CE15DF0589F0D8016D918D01D601ED913C
:100AC000FC910190F081E02DC6010995892B11F46C
:100AD0007E0102C02196ECCFC701DF91CF911F911B
:100AE0000F91FF90EF90DF90CF9008953FB7F8946B
:100AF0008091D6019091D701A091D801B091D901F0
:100B000026B5A89B05C02F3F19F00196A11DB11D68
:100B10003FBFBA2FA92F982F8827820F911DA11DA3
:100B2000B11DBC01CD0142E0660F771F881F991FE0
:100B30004A95D1F708952FB7F8946091D20170913A
:100B4000D3018091D4019091D5012FBF08958FB129
:100B50008095807F669B88601C9B84600895E7EB8E
:100B6000F3E080E0A0E0B8E000800EBC8111012C31
:100B70001197A0FDFDCF0192B9F70DB40895089526
:100B8000089580E090E00895813041F050F0823087
:100B900051F0833051F420E09FEF07C020E091E056
:100BA00004C02FEF01C021E090E0892F990F990B2D
:100BB000860F911D3FE0389FF001399FF00D112401
:100BC000E452FE4FE40FF11DE20FF11D27FDFA95EF
:100BD000908181E0913021F0923011F0933009F44E
:100BE00080E08093AE0108958FEF8093DA010E9438
:100BF000A70587FD1092DA010E94A70584FF03C0B4
:100C000081E08093DA010E94A70585FF03C082E09E
:100C10008093DA010E94A70586FF03C083E08093DA
:100C2000DA010E94A70583FF03C084E08093DA0104
:100C30000E94A70582FF03C085E08093DA01089532
:100C40000E94DF163F924F925F926F927F928F9237
:100C50009F92AF92BF92CF92DF92EF92FF920F934B
:100C60001F93CF93DF9383E08093AD0382E0809363
:100C7000A601E6E6F1E0A3ECB1E08FEF119211924C
:100C8000119211928D9391E0EE38F907B9F73CED8E
:100C9000E32E31E0F32EC0E0D12CCC24C39444E009
:100CA000842E912CA12CB12C5CE1452E512C612C71
:100CB000712C62E0362E8701D0E0CC2351F0CE308B
:100CC00041F0DD2331F0DE3121F08D2F8C2B80FDC2
:100CD00003C0F801C0822CC00E946016A5019401D7
:100CE0000E947616672B682B692B19F4F801308265
:100CF0001FC00E946016A30192010E947616672B06
:100D0000682B692B99F48091DB01D81688F48D2D1E
:100D100090E0FC01EE0FFF1FE155FE4FD083C18331
:100D2000FC01ED53FE4F3082D39402C0F8011082D3
:100D3000DF5F015F1F4FDF3109F0BFCFCF5FFFEFF4
:100D4000EF1AFF0ACF3009F0B6CF1092B40210921A
:100D5000C3021092D2021092B5021092C4021092F5
:100D6000D3021092B6021092C5021092D402C09320
:100D7000A80187E08093A7010E949B056093A901C9
:100D80007093AA018093AB019093AC01DF91CF9156
:100D90001F910F91FF90EF90DF90CF90BF90AF9099
:100DA0009F908F907F906F905F904F903F900895AD
:100DB0004091B0035091B1032091AE033091AF0345
:100DC00042175307B4F49091E8009570E1F39091C5
:100DD000E80092FD19C08093F1008091B0039091DA
:100DE000B10301968F739927892B19F48EEF8093A5
:100DF000E8008091B0039091B10301969093B10304
:100E00008093B00381E0089580E00895615030F050
:100E10002091F100FC0120830196F8CF289884E608
:100E20008093B50308958F929F92AF92BF92CF9215
:100E3000DF92EF92FF926B017C010E9476054B01DD
:100E40005C01C114D104E104F104F1F00E947605C3
:100E5000DC01CB0188199909AA09BB09883E934096
:100E6000A105B10570F321E0C21AD108E108F1082B
:100E700088EE880E83E0981EA11CB11CC114D10419
:100E8000E104F10419F7DDCFFF90EF90DF90CF90F0
:100E9000BF90AF909F908F900895BC0180E090E04C
:100EA0000C941307CF92DF92EF92FF920F931F9350
:100EB000CF93DF93CDB7DEB7A1970FB6F894DEBF1F
:100EC0000FBECDBF0E948B1084E390E09093C707C4
:100ED0008093C60780E190E09093C9078093C8078C
:100EE00082EC91E00E94B01080E490E09093C707FC
:100EF0008093C60780E290E09093C9078093C8076B
:100F00002091DB0130E040E050E019A28E010F5D3E
:100F10001F4F8AE0C82ED12CE12CF12CCA01B90157
:100F2000A70196010E94A816605DF80162938F01E7
:100F3000211531054105510589F7CF010E949E1009
:100F400081E691E00E949E108BEB97E00E94AF0536
:100F500068EE73E080E090E00E941307A1960FB660
:100F6000F894DEBF0FBECDBFDF91CF911F910F91DF
:100F7000FF90EF90DF90CF9008951F920F920FB6E1
:100F80000F9211242F933F938F939F93AF93BF930F
:100F90008091D2019091D301A091D401B091D5015B
:100FA0003091D10123E0230F2D3720F40196A11DAC
:100FB000B11D05C026E8230F0296A11DB11D209387
:100FC000D1018093D2019093D301A093D401B09327
:100FD000D5018091D6019091D701A091D801B0910F
:100FE000D9010196A11DB11D8093D6019093D7011F
:100FF000A093D801B093D901BF91AF919F918F91E8
:101000003F912F910F900FBE0F901F901895603851
:101010007105D0F440345105B8F4E8ECF1E080E11A
:10102000849FD001A0781124A60F4770E40FF11D12
:101030008491A954BC4F222319F06C91862B03C0D4
:1010400080956C9186238C9308952F923F924F92B6
:101050005F926F927F928F929F92AF92BF92CF9248
:10106000DF92EF92FF920F931F93CF93DF93CDB751
:10107000DEB729970FB6F894DEBF0FBECDBFFC01D7
:101080006A3069F425898189928938E0239F800D2F
:10109000911D1124928B818B108A1786AAC06D3006
:1010A00009F4A7C099878887F588348823886188E0
:1010B00072880785108900381105C4F0A885B985A4
:1010C00055962C915597422F50E01F968D919C91EB
:1010D0005097B6E02B9F800D911D1124E885F9856E
:1010E000908B8787268921116EC083C0F0E46F162C
:1010F000710424F7C80125E0F29E800D911D112492
:1011000018161906DCF68F2D90E09C838B83C301A3
:10111000A8E0FA9E800D911D11241816190674F688
:10112000B5E06B9FB0011124FB01E053FE4FFA8341
:10113000E98330E08885998504969E838D83E981D3
:10114000FA81E490353009F4E12C430188E0482E1F
:10115000E0FC02C0532C01C0522C51100BC03210C5
:1011600009C0E6944A948B819C81880E991E411097
:10117000EFCF1BC068018C2D801B8F1590F7540199
:101180008A2D88198F1568F4252DA501B6018D814A
:101190009E813F830E9407089FEFA91AB90A3F81E9
:1011A000EFCFAFEFCA1ADA0AE6CF3F5FEB81FC81DF
:1011B0000E0F1F1F89819A8101969A838983363089
:1011C00009F0BDCF7BCF6AEF64039001659F300DBE
:1011D000112420583F4F281739075CF4A885B9859A
:1011E000ED91FC9111970190F081E02D6AE0CD0125
:1011F000099581E090E029960FB6F894DEBF0FBE06
:10120000CDBFDF91CF911F910F91FF90EF90DF90B5
:10121000CF90BF90AF909F908F907F906F905F9096
:101220004F903F902F9008952F923F924F925F9250
:101230006F927F928F929F92AF92BF92CF92DF92E6
:10124000EF92FF920F931F93CF93DF93C12CD12C7A
:10125000C0E0D0E021E0AE01B6018BEB97E00E9448
:1012600007082196C034D105A9F72FEFC21AD20A78
:1012700030E8C316D10461F78091A7011CEF180F65
:10128000C82ED12C260184E0480E511C87E090E046
:101290001C012C183D08812E012E000C99084814C1
:1012A00059040CF4DDC08091A80148EFF42EF80E2B
:1012B000E401C20DD31D249753E0CC0FDD1F5A95D6
:1012C000E1F790E03C01A9E06A0E711C6FE0A62EE8
:1012D000B12CA81AB90A8F2D0F2C000C990B681687
:1012E00079060CF4BBC0BEE1BF1508F4B5C01F30D1
:1012F00008F0B2C02FE0289FF001299FF00D1124C3
:10130000E80DF91DE452FE4F2081233009F453C04B
:10131000E0F42130C9F1223009F09EC02091A401EF
:10132000BE01620F711D27FD7A958A0D9B1D0897DE
:1013300023E0880F991F2A95E1F73091A301E12C52
:1013400008E028E044E651E081C0253009F468C097
:1013500008F44FC0263009F07FC02091A401BE01DF
:10136000620F711D27FD7A958A0D9B1D0897E3E09A
:10137000880F991FEA95E1F73091A301E12C08E06D
:1013800028E04CE351E062C02091A401BE01620F4D
:10139000711D27FD7A958A0D9B1D089733E0880FF4
:1013A000991F3A95E1F73091A301E12C08E028E07C
:1013B00044E551E04BC0E0916401F0E0EE0FFF1F07
:1013C000E05FFE4F408151812091A401BE01620F78
:1013D000711D27FD7A958A0D9B1D089703E0880FE4
:1013E000991F0A95E1F73091A301E12C08E028E06C
:1013F0002DC02091A401BE01620F711D27FD7A95B9
:101400008A0D9B1D0897A3E0880F991FAA95E1F705
:101410003091A301E12C08E028E04CE451E016C033
:101420002091A401BE01620F711D27FD7A958A0DDE
:101430009B1D0897F3E0880F991FFA95E1F730910B
:10144000A301E12C08E028E044E451E0830F911D62
:1014500037FD9A950E94F10FF3943DCF1F5F1BCF8C
:10146000809164018F5F823018F48093640102C020
:10147000109264011091AD03112309F493C043EC61
:10148000A42E41E0B42EC0E0D0E087E090E0DC0183
:10149000AC19BD096D015FE0852E912CD501ED9150
:1014A0005D01EF3FA9F1F0E0EE0FFF1FEC5EFE4F94
:1014B00040815181FE01E155FE4F8181B601680FE7
:1014C000711D6450710923E0660F771F2A95E1F7BB
:1014D0008091A401680F711D87FD7A95208180910C
:1014E000A801F401E81BF109CF01820F911D0897B3
:1014F00033E0880F991F3A95E1F73091A301E12C71
:1015000008E028E0830F911D37FD9A950E94F10FA6
:101510002296C431D10509F0C1CF0E949B0580906D
:10152000A9019090AA01A090AB01B090AC01F8E89D
:101530008F0EF3E19F1EA11CB11CE091650168159F
:1015400079058A059B0548F08091A601F0E023E02B
:10155000829FE00DF11D112408C0E11115C0E0913A
:10156000A60133E0E39FF0011124EE0FFF1FE45EBC
:10157000FE4F40815181E12C08E028E068E170E0F5
:1015800088E390E00E94F10F8091A50181114BC08A
:101590000E949B05681579058A059B0508F443C0E0
:1015A00010926501C12CD12CC8E3D0E020E0AE013F
:1015B000B6018BEB97E00E9407082196C034D10555
:1015C000A9F78FEFC81AD80A90E8C916D10461F7B5
:1015D000C12CD12CC0E0C11781F0EE24E39408E0C7
:1015E00028E04CE551E068E370E0C6010E94F10F8D
:1015F000CF5FA9E0CA0ED11CEECF8BEB97E0DF9155
:10160000CF911F910F91FF90EF90DF90CF90BF90FF
:10161000AF909F908F907F906F905F904F903F9092
:101620002F900C94AF05809165018F5F80936501C9
:10163000833008F0B5CFB6CF4F925F926F927F9212
:101640008F929F92AF92BF92CF92DF92EF92FF92D2
:101650000F931F93CF93DF931F92CDB7DEB7809187
:10166000AD03811109C0A3EC6A2EA1E07A2EF3012B
:1016700081E09AE0960D72C00E949B050091CD0119
:101680001091CE012091CF013091D0010C591F4F04
:101690002F4F3F4F601771078207930720F30E9477
:1016A0009B056093CD017093CE018093CF01909301
:1016B000D00100EB11E06FEA462E61E0562E73EC8C
:1016C000E72E71E0F72EE4E08E2E912CA12CB12CA8
:1016D000FAE07F2E7E0CD7019D917D019F3FA1F105
:1016E000F801C080D201DC904C2D6D2D892F99839B
:1016F0000E94C4058091AE0199818823C9F0913080
:1017000071F048F0923079F09330F1F4D2018C917D
:1017100081508C9319C0CA94F801C08215C0D3942B
:10172000D201DC9211C0F80180818F5F80830CC0F0
:101730000E9460166701B1E0CB1AD108A50194019F
:101740000E947616F60160830E5F1F4FF2E04F0E87
:10175000511C7E10C0CF87CF9E1729F021912F3FBB
:10176000D9F380E0F9CF8093AD01882309F468C0F4
:101770008091DB018A3009F05CC00E948B1080E10F
:1017800090E09093C7078093C6071092C907109204
:10179000C80782EB91E00E94B0108EE991E00E94B0
:1017A000B01080E991E00E94B0108AE791E00E94B9
:1017B000B0108CE691E00E94B010EE24E39408E0B3
:1017C00028E04CE151E060E370E088E390E00E94A3
:1017D000F10F00E010E058E3E52EF12C21E0A70125
:1017E000B8018BEB97E00E9407082FEFE21AF20A8C
:1017F00080E4E816F10491F70F5F1F4F00381105E0
:1018000051F7C12CD12CE12C08E028E044E651E04E
:1018100068E370E0C6010E94F10FA8E0CA0ED11C77
:10182000B0E8CB16D10479F78BEB97E00E94AF05B7
:10183000FFCF8F5F8093DB010E9452070E94220638
:101840008CED91E046E055E06FE0680FFC012FE180
:101850003081343011F4508307C0353011F44083A7
:1018600003C0363009F4108221503F962111F0CF89
:1018700001966813EBCF8091AD03882309F4B4C1BE
:1018800000E010E04FE0F42EEE24EA94F801E15578
:10189000FE4FC080D180FC9CF0011124ED0DF11DA4
:1018A000E452FE4F8081843028F0F30180818F3F25
:1018B00009F0E0820E949B058090A9019090AA0106
:1018C000A090AB01B090AC01F8E88F0EF3E19F1E41
:1018D000A11CB11C681579058A059B0508F1E091EA
:1018E000A8018091A701EC1102C08D1551F0FE9E58
:1018F000F0011124E80FF11DE452FE4F8081843085
:1019000078F08091AD0381508093AD030E949B05D8
:101910006093A9017093AA018093AB019093AC01ED
:101920000E5F1F4F2FEF621A720A0431110509F082
:10193000ADCF0091DA01023009F455C028F400233C
:1019400051F0013059F1C9C0033009F46FC00430BF
:1019500009F492C0C2C01092A6011091A701412FB4
:101960006091A80180E00E94C405123008F4B5C05F
:101970008091AE01882309F4B0C081E08093A50175
:101980008093A4010091A401083034F40E9414094A
:101990000D5F0093A401F6CF115022C082E0809326
:1019A000A6011091A701412F6091A8010E94C405D2
:1019B0001D3008F092C08091AE01882309F48DC0DB
:1019C0000093A5018FEF8093A4010091A401093F2A
:1019D00034F00E94140903500093A401F6CF1F5F56
:1019E0001093A7017AC083E08093A6011091A8010B
:1019F0004091A701612F0E94C405123008F46DC008
:101A00008091AE01882309F468C081E08093A5012C
:101A10008093A3010091A301083034F40E941409BB
:101A20000D5F0093A301F6CF115023C001E0009396
:101A3000A6011091A8014091A701612F81E00E94A9
:101A4000C4051D3108F049C08091AE01882309F416
:101A500044C00093A5018FEF8093A3010091A301DF
:101A6000093F34F00E94140903500093A301F6CFFC
:101A70001F5F1093A80131C03091A2013A3068F580
:101A80009091A8018091A701AFE09A9FF0011124E5
:101A9000E80FF11DE452FE4F20812330F1F03F5F4B
:101AA0003093A201032F10E001501109D801AA0FB1
:101AB000BB1FA257BE4F9C9311968C9383E08083EB
:101AC0000E949B05000F111F000F111FF801EA591A
:101AD000FE4F60837183828393838091A501882365
:101AE00031F01092A3011092A4011092A501F09080
:101AF000A201FF2009F478C00E949B0500916601B5
:101B00001091670120916801309169010854144FC8
:101B10002F4F3F4F601771078207930708F464C087
:101B200090918E01E0918F01F0E0DF012FE0929F14
:101B3000A00DB11D1124A452BE4F84E08C93AFE0E0
:101B40009A9FC00111249F01280F391F24523E4F34
:101B500040E050E074E0DA011F97A20FB31F6C91D0
:101B60006D7F613009F07C93415F5F4F4D325105CD
:101B700091F7E80FF91FE552FE4F80E090E044E056
:101B80005081513041F0DC011F97A20FB31F5C91CF
:101B9000533009F0408331960F968D32910581F7CD
:101BA000FA94F092A201EEE8F1E006E611E080E09E
:101BB00032968F15C8F490819F0122503109D901C6
:101BC0009C9391812F5F3F4FD9019C93D80114962C
:101BD0004D915D916D917C9117974D935D936D93B0
:101BE0007D938D018F5FE4CF0F90DF91CF911F9197
:101BF0000F91FF90EF90DF90CF90BF90AF909F90AC
:101C00008F907F906F905F904F900895FC0180912E
:101C1000B603811103C08FEF9FEF08959FB7F8942B
:101C200082E08093E9002091F20030E01216130662
:101C300014F421E030E02115310559F0289884E6AC
:101C40008093B5038091F10080838091F200882316
:101C500019F09FBFC90108958BE68093E800F9CF82
:101C60002FB7F89483E08093E9009091E800892FE2
:101C7000807295FF04C09091F20080E4891B2FBF11
:101C800008958091D30781110DC082E08093CF0722
:101C900084E08093D0071092D2071092D10781E0A0
:101CA0008093D3078FEC97E00895CF93DF931F9233
:101CB000CDB7DEB76983DC01ED91FC910280F38141
:101CC000E02D41E050E0BE016F5F7F4F09950F901E
:101CD000DF91CF91089583E08093E9008091F20035
:101CE000882319F08AE38093E80008950E94300E5B
:101CF00090E00895CF93DF931F92CDB7DEB7FC013C
:101D00008485958597FD05C02FEF3FEF35872487A4
:101D10000BC0CE0101960E94060E019719F489812D
:101D200090E002C08FEF9FEF0F90DF91CF91089569
:101D30000F931F93CF93DF931F92CDB7DEB78C0124
:101D4000FC018485958597FF0EC0CE0101960E9407
:101D5000060E019719F4298130E002C02FEF3FEF02
:101D6000F80135872487F801848595850F90DF91E8
:101D7000CF911F910F910895FC018485958597FD62
:101D80000BC09FB7F89482E08093E9008091F20045
:101D90009FBF90E0019608959FB7F89482E08093EA
:101DA000E9008091F2009FBF90E008958F929F928A
:101DB000AF92BF92CF92DF92EF92FF920F931F9359
:101DC000CF93DF935C016B017A0180910B01882333
:101DD00009F45BC08091B603882309F456C0809152
:101DE000B40380FF05C08091E00082608093E00032
:101DF000E70110E00AEF83E0882E9AE3992E2097FE
:101E0000D9F10E94300E81110AC0015009F43DC081
:101E100061E070E080E090E00E941307F0CF282F8F
:101E200030E0C217D3070CF48C2F4FB7F894809290
:101E3000E9009091E80095FF1DC0282F30E0C21BFB
:101E4000D30BF601982F915020F081918093F100EF
:101E5000FACFC20ED31E112319F09092E80009C0E8
:101E60008091E80085FD06C09092E80011E020977F
:101E700009F010E04FBFC3CF1111C3CF5D9884E6C6
:101E80008093CE071E141F0444F081E090E0F5011A
:101E90009383828380E090E001C0C701DF91CF91FE
:101EA0001F910F91FF90EF90DF90CF90BF90AF9078
:101EB0009F908F900895CF92DF92EF92FF920F93B1
:101EC0001F93CF93DF931F92CDB7DEB7182F062F46
:101ED000E42E862F880F8E5F99830E94D80683E0B8
:101EE0000E94D806F12EC12E9981D92E8C2D8F19E2
:101EF000801798F4F601E7FE02C0849101C080814A
:101F00000E94D806182F80E00E94D8068123FFEF98
:101F1000CF1ADF0A8111EACF01C081E00F90DF9173
:101F2000CF911F910F91FF90EF90DF90CF90089588
:101F3000DF92EF92FF920F931F93CF93DF93D82EF0
:101F40008A017B01E40EF51EEB01CE15DF0571F071
:101F5000D7FE03C0FE01849101C088810E94D8068B
:101F600021968111F2CF8FEF9FEF01C0C801DF9161
:101F7000CF911F910F91FF90EF90DF9008950F93F5
:101F80001F93CF93DF931F92CDB7DEB782E0898393
:101F900042E450E064ED79E080E80E94980F0E94EE
:101FA000410EDC0112960D911C911397011511053C
:101FB00069F0D801ED91FC910280F381E02DBE0122
:101FC0006F5F7F4FC801099597FF07C089810F9008
:101FD000DF91CF911F910F910895F8010085118530
:101FE000E5CF2F923F924F925F926F927F928F92A6
:101FF0009F92AF92BF92CF92DF92EF92FF920F9398
:102000001F93CF93DF9300D000D01F92CDB7DEB7E0
:10201000C22ED12C9C012C0D3D1D37FD64C0803893
:1020200091050CF060C010E09B01200F311F37FDBF
:102030005AC0603471050CF056C03E2D3A012B0198
:102040001C01C6010796AC0193E0559547959A95FA
:10205000E1F75A834983A12CB12CE12CF12CE01635
:10206000F1060CF040C01D821C824701840C951CB7
:102070004C815D814C155D0574F5EC81FD8183E03B
:10208000F595E7958A95E1F7EA0DFB1DE60DF71D3D
:10209000E491F0E08C819D818770992740E850E0C1
:1020A00002C0559547958A95E2F7E423F523EF2B77
:1020B00061F0232FA4016C817D81620D731D8BEB78
:1020C00097E03B830E9407083B818C819D810196AC
:1020D0009D838C83CDCF5FEFE51AF50A89819A81C4
:1020E000A80EB91EBCCF0F900F900F900F900F90BD
:1020F000DF91CF911F910F91FF90EF90DF90CF90E4
:10210000BF90AF909F908F907F906F905F904F9017
:102110003F902F90089580E0E7EBF3E081118FEF7F
:10212000002481938193819381930394D1F7E7EB0A
:10213000F7E0128A118A108A17860895009769F0CD
:10214000FC0101900020E9F73197AF01481B590BC2
:10215000BC0187EB97E00C944B0580E090E008957C
:102160000F931F93CF93DF938C01C0E0D0E0F80171
:10217000EC0FFD1F6491662371F0E091B707F091B9
:10218000B8070190F081E02D87EB97E00995892B46
:1021900011F02196ECCF81E691E00E949E108C0F09
:1021A0009D1FDF91CF911F910F9108951F920F9264
:1021B0000FB60F9211248F939F938091E10090911D
:1021C000E100937F9093E10083FF0FC01092E9003C
:1021D00091E09093EB001092EC0092E39093ED006D
:1021E0001092B60398E09093F00082FF20C093E035
:1021F0009093E9009091F200992319F09AE390935B
:10220000E8009091CE07992339F09091CE07915034
:102210009093CE07992389F19091B503992339F0D2
:102220009091B50391509093B503992341F184FFA8
:1022300010C08091E2008E7E81608093E2008091E8
:10224000E1008F7E8093E1008091B4038E7E8061F7
:1022500011C080FF16C08091E2008E7E8061809365
:10226000E2008091E1008E7E8093E1008091B403D2
:102270008E7E81608093B40304C05D9ACDCF289A8E
:10228000D6CF9F918F910F900FBE0F901F901895F2
:102290001F920F920FB60F921124CF92DF92EF92FE
:1022A000FF920F931F932F933F934F935F936F93DF
:1022B0007F938F939F93AF93BF93EF93FF93CF93AE
:1022C000DF93CDB7DEB76C97DEBFCDBF1092E900CC
:1022D0008091E80083FFEDC168E0CE0145960E9441
:1022E000060782EF8093E8008D8987FF05C09091F3
:1022F000E80090FFFCCF03C09EEF9093E800982F7A
:10230000907609F0C6C09E892F89188D91110CC056
:10231000803829F48091B3038093F10002C01092B9
:10232000F1001092F10048C1422F50E0512B913042
:1023300051F4811141C14130510509F03DC18091F5
:10234000B3038D7F0BC0933061F4811135C14130EF
:10235000510509F031C18091B30382608093B303CA
:102360002BC1953041F48091E80080FFFCCF2068BC
:102370002093E30021C1963009F05FC0EB8CFC8C08
:102380001092E9001092B1031092B003123091F54F
:102390001092AF031092AE030E94BF0F99E0BE01EE
:1023A0006F5F7F4FDB01E92F1D92EA95E9F7998373
:1023B0001A8391E09E8390EA98879AEF99872091FB
:1023C000B0033091B103275F3F4F3C832B838D8354
:1023D0001092E9001092B1031092B003F092AF0393
:1023E000E092AE0349E050E080E00E94980F0E9426
:1023F000BF0FE2C0F092AF03E092AE030E94410E25
:10240000DC011296ED90FC901397E114F10409F4AD
:10241000C0C0D701ED91FC910480F581E02DBE0193
:102420006B5E7F4FC7010995009719F00CF0C4C08F
:10243000C7C0F701E084F184E8CF973009F4C0C049
:10244000983021F481E08093F100B6C0993009F012
:10245000B3C0837009F0B4C0E5E3F1E081E021E0AE
:1024600036E39081992361F08093E9002093EB009B
:1024700091919093EC003093ED008F5F873089F756
:102480008EE78093EA001092EA008F898093B6036A
:1024900093C08B8D9C8D1092E9001092B103109225
:1024A000B0039093AF038093AE03898D811156C022
:1024B0008E899D89913A59F4813209F081C047E0B3
:1024C00050E064E071E080E00E94980F75C09132A6
:1024D00009F076C0833289F4888D90E0982F8827A0
:1024E0002F89822BA0E0B0E080930001909301013E
:1024F000A0930201B09303015FC0803269F4809120
:10250000E80082FFFCCF67E084E091E00E940607CC
:102510008BEF8093E80006C0823209F04DC08F89AE
:1025200080930B018091B203882319F0EEEFFAE05B
:1025300002C0E0E0F8E08091040190910501A091D3
:102540000601B0910701803B9440A105B10509F057
:102550007BC080910B0180FF93C076C00E94410E2A
:10256000DC0112960D911C9113970115110541F193
:10257000D801ED91FC910190F081E02DBE016B5EE0
:102580007F4FC8010995811117C0F8010085118599
:10259000ECCF113009F44EC0133091F48F898823A9
:1025A00009F445C0823081F440E867E088E39AE0AE
:1025B0000E945B0F882321F08EEF8093E80079C0A2
:1025C00081E28093EB0075C0813029F440E86BE034
:1025D0008CE29AE0EDCF833099F70E94410EDC0146
:1025E0001296ED90FC9013978E010F5F1F4F6801BC
:1025F000E114F10479F0D701ED91FC910680F781A7
:10260000E02DB801C7010995080F111DF701E084FD
:10261000F184EECFD8011C92F60101900020E9F779
:102620003197BF016C197D0940E0C601C1CF66E159
:102630007AE002C06AE17AE06115710509F2FB01F6
:10264000449150E080E840CF0FB6F894A89580916F
:102650006000886180936000109260000FBEA895B2
:10266000EE3F2AE0F20739F08091FE0A9091FF0ACE
:1026700091838083A1CF1092FF0A1092FE0A9CCF13
:10268000EE3F8AE0F80731F0808191819093FF0A54
:102690008093FE0A87E797E7918380839BE088E138
:1026A0000FB6F894A895809360000FBE90936000D9
:1026B00083CF6C960FB6F894DEBF0FBECDBFDF910F
:1026C000CF91FF91EF91BF91AF919F918F917F91AA
:1026D0006F915F914F913F912F911F910F91FF90BB
:1026E000EF90DF90CF900F900FBE0F901F90189536
:1026F0000F931F93CF93DF93EC0181E090E00E9452
:102700006E1680FF2EC08AE090E00E946E169FEF4A
:10271000980F9E3F30F522E330E0388B2F8728E377
:1027200030E03A8B298B0BE010E0E881F9810190D1
:10273000F081E02D682FCE010995C8010E946E1628
:102740000F5F1F4F0131110581F7CE0104960E94E2
:10275000AF0588EE93E0DF91CF911F910F910C941C
:102760004D07DF91CF911F910F91089504970C941D
:102770007813789484B5826084BD84B5816084BD0B
:1027800085B5826085BD85B5816085BD80916E000F
:10279000816080936E001092810080918100826040
:1027A000809381008091810081608093810080917D
:1027B000800081608093800080919100826080938E
:1027C00091008091910081608093910080919000B0
:1027D0008160809390008091C10084608093C100EB
:1027E0008091C10082608093C1008091C1008160AE
:1027F0008093C1008091C30081608093C300809169
:10280000C00082608093C0008091C200816080938C
:10281000C20080917A00846080937A0080917A006F
:10282000826080937A0080917A00816080937A0040
:1028300080917A00806880937A001092B60310929B
:10284000B3031092B4038091D70081608093D700C6
:1028500080EA8093D80089B5806189BD89B582609E
:1028600089BD09B400FEFDCF61E070E080E090E03A
:102870000E9413078091D8008F7C80618093D800DC
:102880008091E000807F8093E0008091E1008E7E67
:102890008093E1008DE08093E200559A209AEEEF5C
:1028A000FFE7859194918B3F9C4D19F481E08093D3
:1028B000B20381EC80937C0085B1806F85B984B1CF
:1028C000877E84B984B1876E84B95E9A5F988AB135
:1028D000806D8AB9769A6E9881B3806F81BB899832
:1028E00080B38D7080BB80E58CBD81E08DBD85E0BF
:1028F00090E00E944D075F9A85E090E00E944D07AE
:102900005E985C98E0EDF6E08DE08E0F94919EBDB0
:1029100000000DB407FEFDCF31968E13F7CF5C9A01
:1029200081E88093640080916500816080936500F8
:10293000EDEDF6E0E49180917B00E3FB442740F964
:10294000C42F90E0D92F45E0CC0FDD1F4A95E1F769
:102950008F7DC82BC0937B00E770E064E0937C0020
:1029600080917A00806480937A0080917A0086FD5D
:10297000FCCF609178008091790070E0782B072E71
:10298000000C880B990B611571058105910511F0FB
:102990000E946516C0E0DFEF96E4C92ED12C2FE22D
:1029A000A22EB12C3EE3832E912CCC2309F4A8C097
:1029B0000E94F4058091DA01813031F018F0843002
:1029C00029F04AC0C0E048C0C1E046C0CC2309F4A9
:1029D00043C0D093DA010E948B101092C707109267
:1029E000C6071092C9071092C8078CEC99E00E94A4
:1029F000B0108BEC99E00E94B0108BEB99E00E9434
:102A0000B01083EB99E00E94B0108CEA99E00E942C
:102A1000B0108AE999E00E94B01089E999E00E941B
:102A2000B01089E899E00E94B0108BEB97E00E940B
:102A3000AF0568EC70E080E090E00E9413078091A1
:102A4000DA018F3F19F40E94F405F9CF68EC70E0C9
:102A500080E090E00E9413070E948B10EE24E39424
:102A600007E227E54CED57E061E070E087E290E097
:102A70000E94F10F09E225E24FE057E067E170E0C4
:102A800080E090E00E94F10F05E027E246EF56E07B
:102A90006AE370E081E490E00E94F10FD092C707F2
:102AA000C092C60707E210E01093C9070093C80759
:102AB00081EF96E00E94B010D092C707C092C6077F
:102AC000B092C907A092C8078BEE96E00E94B010A2
:102AD0009092C7078092C607C11105C01093C9071D
:102AE0000093C80704C0B092C907A092C80789EE36
:102AF00096E00E94B0108BEB97E00E94AF0555CF97
:102B00008091DA01843009F053CF81E08093DB01BA
:102B10000E9452070E942206C12CD12CD4E08CEDD9
:102B200091E0CFE0C80F80E0A82E80E0B82E809121
:102B3000AD03811139C02CED31E080E090E0F90166
:102B4000E80FF91FD0830F96813DE1E09E07B9F7AA
:102B50002F5F3F4FC213F1CF8091DC01833058F0DB
:102B60000E9414090E941C0B64EF71E080E090E069
:102B70000E941307F1CF0E941409E12C08E028E01D
:102B80004CE151E068E170E088E390E00E94F10FD1
:102B90008BEB97E00E94AF0568E873E180E090E07E
:102BA0000E941307F60109950E94F4050E9414097A
:102BB0000E941C0BA114B10409F4B9CF0E940000BB
:102BC000B6CFEBEDF7E01382128288EE93E0A0E03F
:102BD000B0E084839583A683B7838FE391E09183EC
:102BE00080838FEF9FEF95878487E7EBF7E0138271
:102BF00012821186128680E18387108617821586DD
:102C000081E591E0918380838FE591E095838483D2
:102C1000108A1786128A118A81E0838B148A858B29
:102C2000168A08958F929F92AF92BF92CF92DF92B1
:102C3000EF92FF92CF93DF93EC01688179818A81D3
:102C40009B81611571058105910521F464E279ED9F
:102C50008BE597E02DE133EF41E050E00E947616DE
:102C600049015A019B01AC01A7EAB1E40E94951603
:102C70006B017C01ACEEB4EFA50194010E94A31698
:102C8000DC01CB018C0D9D1DAE1DBF1DB7FF03C028
:102C90000197A109B04888839983AA83BB83BC01AB
:102CA000CD019F77DF91CF91FF90EF90DF90CF9094
:102CB000BF90AF909F908F9008950E941216089534
:102CC0008CE091E00E941216089560930C017093BD
:102CD0000D0180930E0190930F010895F999FECF95
:102CE00092BD81BDF89A992780B50895052E97FB6E
:102CF0001EF400940E948D1657FD07D00E94A8165E
:102D000007FC03D04EF40C948D16509540953095E9
:102D100021953F4F4F4F5F4F089590958095709547
:102D200061957F4F8F4F9F4F08950E94CA16A59FB0
:102D3000900DB49F900DA49F800D911D11240895B6
:102D4000B7FF0C9495160E949516821B930B08955D
:102D5000A1E21A2EAA1BBB1BFD010DC0AA1FBB1F9F
:102D6000EE1FFF1FA217B307E407F50720F0A21B11
:102D7000B30BE40BF50B661F771F881F991F1A947E
:102D800069F760957095809590959B01AC01BD01A8
:102D9000CF010895A29FB001B39FC001A39F700D02
:102DA000811D1124911DB29F700D811D1124911D53
:102DB0000895EE0FFF1F0590F491E02D099481E036
:0C2DC00090E0F8940C94E416F894FFCF17
:102DCC00FFFFFFFF00E10000000000000100000019
:102DDC00B400AC00D400CC00C400BC0034012C0105
:102DEC0024011C0114010C010401FC00F400EC0092
:102DFC00E400DC0000C180810000000000000055F0
:102E0C000ED60E760E6B0EBC0E7A0E980E000000CF
:102E1C000025084B05C105C0057813FCFF0000B662
:042E2C00130D0A0078
:00000001FF
