:100000000C94CC040C94F4040C94F4040C94F404B8
:100010000C94F4040C94F4040C94F4040C94F40480
:100020000C94F4040C94F4040C94F4040C94F40470
:100030000C94F4040C94F4040C94F4040C94F40460
:100040000C940C0E0C94F4040C94F4040C94F4042E
:100050000C94F4040C94F4040C94F4040C94F40440
:100060000C94F4040C94F4040D1279DCBCBCFC7800
:100070000C1278DCBCBCFC783C42A9A981817E18BA
:100080003C42A5A581817E183C42959581817E18D0
:100090003C42818181817E187D2E7D3C546A3C28C2
:1000A0007D2E7D3C562A3C287D2E7D3C566A3C2880
:1000B0003C283C3C546A3C283C283C3C562A3C2882
:1000C0003C283C3C566A3C28BE74BE3C546A3C14F6
:1000D000BE74BE3C562A3C14BE74BE3C566A3C14E8
:1000E0003C3C3C3C546A3C283C3C3C3C562A3C282A
:1000F0003C3C3C3C566A3C2850210A219840840AEA
:1001000000522C2244344A0000102C3A5C3408007F
:10011000FDFDFDFDFDFD01FF0066FFFFFF7E3C18BC
:1001200080FF3020FF0604FF2020202020202052C6
:10013000554E4E45520053454520594F5520414795
:1001400041494E20494E204C4F444500202020205C
:1001500020202052554E4E45520020424F4D4245E0
:1001600052204D414E204245434F4D455300434F91
:100170004E47524154554C4154494F4E53004C4503
:1001800056454C0001020408102040800000000089
:10019000003E5B4F5B3E3E6B4F6B3E1C3E7C3E1C0D
:1001A000183C7E3C181C577D571C1C5E7F5E1C0053
:1001B000183C1800FFE7C3E7FF0018241800FFE70A
:1001C000DBE7FF30483A060E2629792926407F05CD
:1001D0000507407F05253F5A3CE73C5A7F3E1C1CE3
:1001E00008081C1C3E7F14227F22145F5F005F5FA3
:1001F00006097F017F006689956A6060606060948F
:10020000A2FFA29408047E040810207E2010080893
:100210002A1C08081C2A08081E101010100C1E0C9E
:100220001E0C30383E3830060E3E0E060000000030
:100230000000005F00000007000700147F147F1417
:10024000242A7F2A1223130864623649562050005C
:1002500008070300001C2241000041221C002A1C48
:100260007F1C2A08083E0808008070300008080833
:100270000808000060600020100804023E51494553
:100280003E00427F400072494949462141494D3371
:100290001814127F1027454545393C4A49493141D8
:1002A000211109073649494936464949291E0000A6
:1002B00014000000403400000008142241141414FB
:1002C0001414004122140802015909063E415D59E7
:1002D0004E7C1211127C7F494949363E41414122F0
:1002E0007F4141413E7F494949417F090909013E1A
:1002F000414151737F0808087F00417F4100204041
:10030000413F017F081422417F404040407F021C52
:10031000027F7F0408107F3E4141413E7F09090969
:10032000063E4151215E7F09192946264949493235
:1003300003017F01033F4040403F1F2040201F3FFB
:100340004038403F63140814630304780403615980
:10035000494D43007F4141410204081020004141C2
:10036000417F04020102044040404040000307086E
:100370000020545478407F2844443838444444286A
:10038000384444287F385454541800087E09021811
:10039000A4A49C787F0804047800447D4000204099
:1003A000403D007F1028440000417F40007C0478DD
:1003B00004787C080404783844444438FC18242425
:1003C0001818242418FC7C080404084854545424A5
:1003D00004043F44243C4040207C1C2040201C3C22
:1003E0004030403C44281028444C9090907C446419
:1003F000544C4400083641000000770000004136AC
:10040000080002010204023C2623263C1EA1A16131
:10041000123A4040207A3854545559215555794163
:100420002154547841215554784020545579400C3A
:100430001E5272123955555559395454545939551B
:100440005454580000457C410002457D420001455E
:100450007C40F0292429F0F0282528F07C545545CB
:10046000002054547C547C0A097F4932494949325E
:100470003248484832324A4848303A4141217A3A73
:1004800042402078009DA0A07D39444444393D403D
:1004900040403D3C24FF2424487E4943662B2FFCEA
:1004A0002F2BFF0929F620C0887E09032054547998
:1004B000410000447D413048484A32384040227A69
:1004C000007A0A0A727D0D19317D2629292F2826E6
:1004D0002929292630484D402038080808080808EE
:1004E0000808382F10C8ACBA2F102834FA00007B47
:1004F000000008142A142222142A1408950022004D
:1005000095AA005500AAAA55AA55AA000000FF0006
:10051000101010FF00141414FF001010FF00FF1043
:1005200010F010F0141414FC001414F700FF000075
:10053000FF00FF1414F404FC141417101F10101FF4
:10054000101F1414141F00101010F0000000001FE2
:10055000101010101F10101010F010000000FF10ED
:100560001010101010101010FF10000000FF1400E9
:1005700000FF00FF00001F10170000FC04F414141B
:100580001710171414F404F40000FF00F7141414E7
:1005900014141414F700F7141414171410101F1067
:1005A0001F141414F4141010F010F000001F101F8A
:1005B0000000001F14000000FC140000F010F010F8
:1005C00010FF10FF141414FF141010101F0000006F
:1005D00000F010FFFFFFFFFFF0F0F0F0F0FFFFFF73
:1005E0000000000000FFFF0F0F0F0F0F38444438CA
:1005F000447C2A2A3E147E02020606027E027E0205
:1006000063554941633844443C04407E201E200623
:10061000027E020299A5E7A5991C2A492A1C4C7260
:1006200001724C304A4D4D303048784830BC625AE7
:10063000463D3E494949007E0101017E2A2A2A2A77
:100640002A44445F444440514A444040444A514053
:100650000000FF0103E080FF000008086B6B083614
:1006600012362436060F090F060000181800000085
:100670001010003040FF0101001F01011E00191D74
:100680001712003C3C3C3C0000000000AED5F0A836
:100690003FD300408D14A1C8DA1281CFD9F1DB40DD
:1006A000A4A6AF200021007F2200072A0041424F6C
:1006B000555400504C415900722510945E8A2516FD
:1006C0009448AA3D56F5488A2550954873A4A092AF
:1006D00088000000040000000002000000000A0082
:1006E00000000553F800002EAAA8000055003800AD
:1006F0000031A2A000004000200001E0AAA00001FB
:10070000410030001BA3AAF80015401300000FE0C1
:100710000A000055500A0001BBBA040005555500F7
:10072000000FFFFF800015555540001BBBBB80002C
:1007300015555540006FEFEFE00055555550003B03
:10074000BBBBB0005555555000FFFFFFF800555595
:10075000555000BBBBBBB8005555555000EFEFEFEF
:10076000E80055555550003BBBBBB00055555550A2
:10077000007FFFFFF00015555540003BBBBB8000DC
:1007800015555540000FEFEF80000555550000014D
:10079000BBB800000055500000001FC00000FF0063
:1007A000000030000000000000FF000000300000EA
:1007B00000000000C180000030000000000000C107
:1007C00080000030000000000000C1800000300008
:1007D0000000000000C180000030000000000000A8
:1007E000C1878FFE3F0F8F3FF0F8FCC1878FFE3F20
:1007F0000F8F3FF0F8FCFF1CCE673399CE33198C76
:10080000C6FF1CCE673399CE33198CC6C19CCE6708
:10081000339FCC33187CC6C19CCE6733980C3318F9
:10082000CCC6C19CCE6733980C3318CCC6C19CCEC5
:100830006733980C33198CC6C19CCE6733980C3340
:10084000198CC6C19CCE673399CC33198CC6C19C18
:10085000CE673399CC33198CC6FF078E673F0F8C58
:100860003318FCC6FF078E673F0F8C3318FCC60099
:10087000000000000000000000008A028A020A0A4C
:100880008802088882550504451505041110544452
:1008900080888A222288882208888241144445114F
:1008A0001144111104448088882020880820088879
:1008B00080411444451110041111044480888A2297
:1008C000228808220888824114444511100411101E
:1008D000444480888A02028A8802080882551444A7
:1008E0004511114411110444AA088A2222888A223F
:1008F000088882410505541505051550505480801F
:1009000088A828088828A0A8A84100000010000096
:100910000000000080800000200000000000004176
:1009200000000010000000000000808000000000B7
:100930000000000000550000001000000000000052
:10094000AA00000020000000000000416E79206B2A
:100950006579206261636B2E2E2E000031323831B2
:100960003730323539344071712E636F6D00452D4B
:100970006D61696C004C485720417274004C4857B7
:100980002070726F6772616D6D696E670000203E46
:1009900041626F7574003D1011241FBECFEFD8E087
:1009A000DEBFCDBF11E0A0E0B1E0ECE5F2E202C0B5
:1009B00005900D92A034B107D9F727E0A0E4B1E08B
:1009C00001C01D92A03AB207E1F714E0CCECD4E0EC
:1009D00004C02197FE010E942111CB3CD107C9F729
:1009E0000E94950E0C942C110C94000080E0E9E814
:1009F000F3E081118FEF00248193819381938193A0
:100A00000394D1F7E9E8F7E0128A118A108A178671
:100A10000895CF92DF92EF92FF920F931F93CF939F
:100A2000DF936C017A018B01C0E0D0E0CE15DF05C9
:100A300089F0D8016D918D01D601ED91FC91019065
:100A4000F081E02DC6010995892B11F47E0102C0C9
:100A50002196ECCFC701DF91CF911F910F91FF90AD
:100A6000EF90DF90CF9008953FB7F8948091B10157
:100A70009091B201A091B301B091B40126B5A89BA9
:100A800005C02F3F19F00196A11DB11D3FBFBA2F20
:100A9000A92F982F8827820F911DA11DB11DBC0180
:100AA000CD0142E0660F771F881F991F4A95D1F745
:100AB00008958F929F92AF92BF92CF92DF92EF9262
:100AC000FF926B017C010E9434054B015C01C11453
:100AD000D104E104F104F1F00E943405DC01CB0102
:100AE00088199909AA09BB09883E9340A105B10557
:100AF00070F321E0C21AD108E108F10888EE880EEF
:100B000083E0981EA11CB11CC114D104E104F104BE
:100B100019F7DDCFFF90EF90DF90CF90BF90AF90AF
:100B20009F908F90089568EE73E080E090E00C94C1
:100B300059052FB7F8946091AD017091AE01809185
:100B4000AF019091B0012FBF0895339902C080E8A2
:100B500001C080E04A9B8061319B80624B9B806436
:100B60004C9B8860329B846008958093BB0084E82E
:100B70008093BC008091BC0087FFFCCF089584EA7D
:100B80008093BC008091BC0087FFFCCF88E70C9469
:100B9000B5050E94BF0580E48093BB0084E8809384
:100BA000BC00E9E8F3E09091BC0097FFFCCF919185
:100BB0009093BB008093BC0097E0E938F90799F760
:100BC0008091BC0087FFFCCF84E98093BC008091BA
:100BD000BC0084FDFCCF089560387105D0F440342A
:100BE0005105B8F4E4E8F1E080E1849FD001A078F9
:100BF0001124A60F4770E40FF11D8491A757BC4F35
:100C0000222319F06C91862B03C080956C9186236A
:100C10008C9308952F923F924F925F926F927F92A2
:100C20008F929F92AF92BF92CF92DF92EF92FF92FC
:100C30000F931F93CF93DF9300D000D01F92CDB7B7
:100C4000DEB7C22ED12C9C012C0D3D1D37FD64C09A
:100C5000803891050CF060C010E09B01200F311F1F
:100C600037FD5AC0603471050CF056C03E2D3A0174
:100C70002B011C01C6010796AC0193E055954795E1
:100C80009A95E1F75A834983A12CB12CE12CF12CE0
:100C9000E016F1060CF040C01D821C824701840C56
:100CA000951C4C815D814C155D0574F5EC81FD81D1
:100CB00083E0F595E7958A95E1F7EA0DFB1DE60DD2
:100CC000F71DE491F0E08C819D818770992740E8C1
:100CD00050E002C0559547958A95E2F7E423F52345
:100CE000EF2B61F0232FA4016C817D81620D731DB8
:100CF0008DE897E03B830E94EC053B818C819D81D0
:100D000001969D838C83CDCF5FEFE51AF50A89812B
:100D10009A81A80EB91EBCCF0F900F900F900F9024
:100D20000F90DF91CF911F910F91FF90EF90DF9087
:100D3000CF90BF90AF909F908F907F906F905F907B
:100D40004F903F902F9008952F923F924F925F9235
:100D50006F927F928F929F92AF92BF92CF92DF92CB
:100D6000EF92FF920F931F93CF93DF93CDB7DEB730
:100D700029970FB6F894DEBF0FBECDBFFC016A30D5
:100D800069F425898189928938E0239F800D911D1E
:100D90001124928B818B108A1786AAC06D3009F4BA
:100DA000A7C099878887F5883488238861887288E6
:100DB0000785108900381105C4F0A885B9855596B6
:100DC0002C915597422F50E01F968D919C915097F2
:100DD000B6E02B9F800D911D1124E885F985908B3D
:100DE0008787268921116EC083C0F0E46F167104D5
:100DF00024F7C80125E0F29E800D911D11241816DC
:100E00001906DCF68F2D90E09C838B83C301A8E04C
:100E1000FA9E800D911D11241816190674F6B5E07E
:100E20006B9FB0011124FB01E457FE4FFA83E98365
:100E300030E08885998504969E838D83E981FA81C7
:100E4000E490353009F4E12C430188E0482EE0FCC1
:100E500002C0532C01C0522C51100BC0321009C0DB
:100E6000E6944A948B819C81880E991E4110EFCFA5
:100E70001BC068018C2D801B8F1590F754018A2DA3
:100E800088198F1568F4252DA501B6018D819E81E5
:100E90003F830E94EC059FEFA91AB90A3F81EFCF6B
:100EA000AFEFCA1ADA0AE6CF3F5FEB81FC810E0F83
:100EB0001F1F89819A8101969A838983363009F0B0
:100EC000BDCF7BCF6AEF64039001659F300D112485
:100ED00020583F4F281739075CF4A885B985ED9154
:100EE000FC9111970190F081E02D6AE0CD01099508
:100EF00081E090E029960FB6F894DEBF0FBECDBF1B
:100F0000DF91CF911F910F91FF90EF90DF90CF90E5
:100F1000BF90AF909F908F907F906F905F904F9019
:100F20003F902F9008950895089580E090E00895EF
:100F3000813041F050F0823051F0833051F420E0A4
:100F40009FEF07C020E091E004C02FEF01C021E037
:100F500090E0892F990F990B860F911D3FE0389FE4
:100F6000F001399FF00D1124E954FE4FE40FF11DFB
:100F7000E20FF11D27FDFA95908181E0913021F07B
:100F8000923011F0933009F480E080938901089544
:100F90002F923F924F925F926F927F928F929F9289
:100FA000AF92BF92CF92DF92EF92FF920F931F9377
:100FB000CF93DF93C12CD12CC0E0D0E021E0AE0173
:100FC000B6018DE897E00E94EC052196C034D1056A
:100FD000A9F72FEFC21AD20A30E8C316D10461F77D
:100FE000809182011CEF180FC82ED12C260184E0BD
:100FF000480E511C87E090E01C012C183D08812E02
:10100000012E000C9908481459040CF4DDC080919D
:10101000830148EFF42EF80EE401C20DD31D24978E
:1010200053E0CC0FDD1F5A95E1F790E03C01A9E0B9
:101030006A0E711C6FE0A62EB12CA81AB90A8F2D6A
:101040000F2C000C990B681679060CF4BBC0BEE19E
:10105000BF1508F4B5C01F3008F0B2C02FE0289FBC
:10106000F001299FF00D1124E80DF91DE954FE4F00
:101070002081233009F453C0E0F42130C9F122303B
:1010800009F09EC020917F01BE01620F711D27FDF6
:101090007A958A0D9B1D089723E0880F991F2A9542
:1010A000E1F730917E01E12C08E028E040E251E0D8
:1010B00081C0253009F468C008F44FC0263009F01B
:1010C0007FC020917F01BE01620F711D27FD7A95BF
:1010D0008A0D9B1D0897E3E0880F991FEA95E1F7B9
:1010E00030917E01E12C08E028E048EF50E062C03A
:1010F00020917F01BE01620F711D27FD7A958A0D37
:101100009B1D089733E0880F991F3A95E1F73091BE
:101110007E01E12C08E028E040E151E04BC0E09185
:101120004001F0E0EE0FFF1FEC5FFE4F4081518168
:1011300020917F01BE01620F711D27FD7A958A0DF6
:101140009B1D089703E0880F991F0A95E1F73091DE
:101150007E01E12C08E028E02DC020917F01BE0136
:10116000620F711D27FD7A958A0D9B1D0897A3E0DC
:10117000880F991FAA95E1F730917E01E12C08E0D4
:1011800028E048E051E016C020917F01BE01620FC7
:10119000711D27FD7A958A0D9B1D0897F3E0880F36
:1011A000991FFA95E1F730917E01E12C08E028E0E3
:1011B00040E051E0830F911D37FD9A950E940A0689
:1011C000F3943DCF1F5F1BCF809140018F5F823032
:1011D00018F48093400102C01092400110918803DE
:1011E000112309F493C04EE9A42E41E0B42EC0E0CF
:1011F000D0E087E090E0DC01AC19BD096D015FE053
:10120000852E912CD501ED915D01EF3FA9F1F0E024
:10121000EE0FFF1FE85FFE4F40815181FE01E65750
:10122000FE4F8181B601680F711D6450710923E082
:10123000660F771F2A95E1F780917F01680F711D76
:1012400087FD7A95208180918301F401E81BF109E3
:10125000CF01820F911D089733E0880F991F3A95AF
:10126000E1F730917E01E12C08E028E0830F911D29
:1012700037FD9A950E940A062296C431D10509F0DD
:10128000C1CF0E9499058090840190908501A09023
:101290008601B0908701F8E88F0EF3E19F1EA11C34
:1012A000B11CE0914101681579058A059B0548F05C
:1012B00080918101F0E023E0829FE00DF11D112477
:1012C00008C0E11115C0E091810133E0E39FF00116
:1012D0001124EE0FFF1FEC5DFE4F40815181E12C88
:1012E00008E028E068E170E088E390E00E940A06E8
:1012F0008091800181114BC00E9499056815790584
:101300008A059B0508F443C010924101C12CD12CE1
:10131000C8E3D0E020E0AE01B6018DE897E00E947E
:10132000EC052196C034D105A9F78FEFC81AD80A69
:1013300090E8C916D10461F7C12CD12CC0E0C117C7
:1013400081F0EE24E39408E028E048E151E068E30E
:1013500070E0C6010E940A06CF5FA9E0CA0ED11C48
:10136000EECF8DE897E0DF91CF911F910F91FF9025
:10137000EF90DF90CF90BF90AF909F908F907F9035
:101380006F905F904F903F902F900C94C905809183
:1013900041018F5F80934101833008F0B5CFB6CF14
:1013A0008FEF8093B5010E94A50587FD1092B501CE
:1013B0000E94A50584FF03C081E08093B5010E94CF
:1013C000A50585FF03C082E08093B5010E94A505B5
:1013D00086FF03C083E08093B5010E94A50583FFCB
:1013E00003C084E08093B5010E94A50582FF03C07D
:1013F00085E08093B5010895009769F0FC010190A4
:101400000020E9F73197AF01481B590BBC0189E86F
:1014100097E00C94090580E090E008950F931F93E6
:10142000CF93DF938C01C0E0D0E0F801EC0FFD1FFB
:101430006491662371F0E0918907F0918A07019029
:10144000F081E02D89E897E00995892B11F021962C
:10145000ECCF8CE391E00E94FC098C0F9D1FDF9183
:10146000CF911F910F9108950E942711CF92DF9283
:10147000EF92FF920F931F93CF93DF93CDB7DEB719
:10148000A1970FB6F894DEBF0FBECDBF0E94F60441
:1014900084E390E0909399078093980780E190E02F
:1014A00090939B0780939A078EE791E00E940E0A23
:1014B00080E490E0909399078093980780E290E011
:1014C00090939B0780939A072091B60130E040E00B
:1014D00050E019A28E010F5D1F4F8AE0C82ED12C5B
:1014E000E12CF12CCA01B901A70196010E94F0106C
:1014F000605DF80162938F012115310541055105A9
:1015000089F7CF010E94FC098CE391E00E94FC095D
:101510008DE897E00E94C90568EE73E080E090E0F6
:101520000E945905A1960FB6F894DEBF0FBECDBF3D
:10153000DF91CF911F910F91FF90EF90DF90CF90AF
:1015400008953F924F925F926F927F928F929F92F7
:10155000AF92BF92CF92DF92EF92FF920F931F93C1
:10156000CF93DF9383E08093880382E080938101AF
:1015700037EBE32E31E0F32EC0E0D12CCC24C39422
:1015800044E0842E912CA12CB12C5CE1452E512CF1
:10159000612C712C62E0362E8701D0E0CC2351F013
:1015A000CE3041F0DD2331F0DE3121F08D2F8C2B58
:1015B00080FD03C0F801C0822CC00E94A810A501C4
:1015C00094010E94BE10672B682B692B19F4F80157
:1015D00030821FC00E94A810A30192010E94BE1079
:1015E000672B682B692B99F48091B601D81688F483
:1015F0008D2D90E0FC01EE0FFF1FE657FE4FD083CC
:10160000C183FC01E256FE4F3082D39402C0F80140
:101610001082DF5F015F1F4FDF3109F0BFCFCF5F67
:10162000FFEFEF1AFF0ACF3009F0B6CF10928F020A
:1016300010929E021092AD021092900210929F02A0
:101640001092AE02109291021092A0021092AF027C
:10165000C093830187E080938201DF91CF911F9136
:101660000F91FF90EF90DF90CF90BF90AF909F9041
:101670008F907F906F905F904F903F9008954F9222
:101680005F926F927F928F929F92AF92BF92CF9212
:10169000DF92EF92FF920F931F93CF93DF9380918E
:1016A0008803811107C087EB91E046E055E06FE0C9
:1016B000680FDFC00E9499050091A8011091A9014F
:1016C0002091AA013091AB010C591F4F2F4F3F4F72
:1016D000601771078207930730F30E9499056093A2
:1016E000A8017093A9018093AA019093AB015BE8D4
:1016F000E52E51E0F52E0AE811E06EE9C62E61E014
:10170000D62EC1E074E0872E912CA12CB12CEAE0FA
:101710007E2E7C0CF601D1916F01DF3F89F1F7013C
:101720006080F801C081462D6C2F8D2F0E94980794
:10173000809189018823D1F0D13079F050F0D230F6
:1017400081F0D33009F081C0F8018081815080831D
:101750007CC06A94E701688278C0CF5FF801C083DB
:1017600074C0E70188818F5F88836FC00E94A810D2
:10177000E6012197A50194010E94BE10688365C00F
:10178000CC2309F463C08091B6018A3009F055C0BA
:101790000E94F60480E190E0909399078093980767
:1017A00010929B0710929A078EE691E00E940E0A13
:1017B0008AE591E00E940E0A8CE491E00E940E0AF4
:1017C00086E391E00E940E0A88E291E00E940E0AF0
:1017D000EE24E39408E028E048ED50E060E370E098
:1017E00088E390E00E940A0600E010E0C8E3D0E041
:1017F00021E0AE01B8018DE897E00E94EC0521964A
:10180000C034D105A9F70F5F1F4F0038110571F7DC
:10181000C0E0D0E0E12C08E028E040E251E068E3DD
:1018200070E0CE010E940A062896C038D10591F7D3
:101830008DE897E00E94C905FFCF8F5F8093B601C6
:101840000E94A10A0E94360A01C0C0E0F2E0EF0E39
:10185000F11C0E5F1F4F7C105DCF25CF30813430DF
:1018600059F4508321503F962111F8CF0196681703
:1018700059F0FC012FE1F2CF353011F44083F2CF63
:10188000363081F71082EECF80918803882309F4E7
:10189000B2C1C0918801CC2309F4ADC14EE9E42E58
:1018A00041E0F42E00E010E0DFE0DD24DA94F801FE
:1018B000E657FE4FB080C180DB9DF0011124EC0D96
:1018C000F11DE954FE4F8081843028F0F7018081BA
:1018D0008F3F09F0D0820E9499054090840150907A
:1018E00085016090860170908701F8E84F0EF3E162
:1018F0005F1E611C711C641575058605970508F14E
:10190000E091830180918201EB1102C08C1551F0AE
:10191000DE9FF0011124E80FF11DE954FE4F808194
:10192000843078F0809188038150809388030E94EE
:10193000990560938401709385018093860190934B
:1019400087010E5F1F4F2FEFE21AF20A04311105D3
:1019500009F0ADCFD091B501D23009F455C028F4CB
:10196000DD2351F0D13059F1C4C0D33009F46FC038
:10197000D43009F492C0BDC010928101C09182019F
:101980004C2F6091830180E00E949807C23008F4D8
:10199000B0C080918901882309F4ABC081E08093B5
:1019A000800180937F01D0917F01D83034F40E9470
:1019B000C807DD5FD0937F01F6CFC15022C082E01F
:1019C00080938101C09182014C2F609183010E941C
:1019D0009807CD3008F08DC080918901882309F4E3
:1019E00088C0D09380018FEF80937F01D0917F01D9
:1019F000D93F34F00E94C807D350D0937F01F6CF6F
:101A0000CF5FC093820175C083E080938101C09154
:101A10008301409182016C2F0E949807C23008F424
:101A200068C080918901882309F463C081E08093B4
:101A3000800180937E01D0917E01D83034F40E94E1
:101A4000C807DD5FD0937E01F6CFC15023C0D1E03F
:101A5000D0938101C0918301409182016C2F81E07C
:101A60000E949807CD3108F044C0809189018823F5
:101A700009F43FC0D09380018FEF80937E01D09115
:101A80007E01D93F34F00E94C807D350D0937E0125
:101A9000F6CFCF5FC09383012CC0CA3050F5909130
:101AA000830180918201DFE09D9FF0011124E80F06
:101AB000F11DE954FE4F20812330D9F0CF5FC09350
:101AC0008801D0E02197DE01AA0FBB1FA659BE4FA7
:101AD0009C9311968C9383E080830E949905CC0F90
:101AE000DD1FCC0FDD1FCE5BDE4F688379838A83D9
:101AF0009B8380918001882331F010927E011092A7
:101B00007F0110928001C0918801CC2309F473C039
:101B10000E949905009142011091430120914401D6
:101B2000309145010854144F2F4F3F4F60177107F4
:101B30008207930708F45FC090916A01E0916B01FE
:101B4000F0E0DF012FE0929FA00DB11D1124A954F8
:101B5000BE4F84E08C93DFE09D9FC00111249D0166
:101B600040E050E074E0DA011F97A20FB31F6C91C0
:101B70006D7F613009F07C93415F5F4F4D325105BD
:101B800091F7E80FF91FEA54FE4F80E090E044E03F
:101B90005081513041F0DC011F97A20FB31F5C91BF
:101BA000533009F0408331960F968D32910581F7BD
:101BB0001FEF1C0F10938801EAE6F1E0A2E4B1E008
:101BC00080E032968117B8F490819F01225031094C
:101BD000E901988391812F5F3F4FE9019883149623
:101BE0004D915D916D917C9117974D935D936D93A0
:101BF0007D938F5FE6CFDF91CF911F910F91FF9083
:101C0000EF90DF90CF90BF90AF909F908F907F909C
:101C10006F905F904F9008951F920F920FB60F92A2
:101C200011242F933F938F939F93AF93BF938091F2
:101C3000AD019091AE01A091AF01B091B001309192
:101C4000AC0123E0230F2D3720F40196A11DB11D17
:101C500005C026E8230F0296A11DB11D2093AC01FB
:101C60008093AD019093AE01A093AF01B093B0010A
:101C70008091B1019091B201A091B301B091B401F2
:101C80000196A11DB11D8093B1019093B201A09363
:101C9000B301B093B401BF91AF919F918F913F91E8
:101CA0002F910F900FBE0F901F9018950F931F93B9
:101CB000CF93DF93EC0181E090E00E94B61080FFAB
:101CC0002CC08AE090E00E94B6109FEF980F9E3FD4
:101CD00020F522E330E0388B2F8728E330E03A8B81
:101CE000298B0BE010E0E881F9810190F081E02D73
:101CF000682FCE010995C8010E94B6100F5F1F4FD3
:101D00000131110581F7CE0104960E94C905DF91CA
:101D1000CF911F910F910C949305DF91CF911F915B
:101D20000F91089504970C94560E789484B58260B0
:101D300084BD84B5816084BD85B5826085BD85B56F
:101D4000816085BD80916E00816080936E001092ED
:101D50008100809181008260809381008091810068
:101D600081608093810080918000816080938000F9
:101D70008091B10084608093B1008091B000816057
:101D80008093B00080917A00846080937A00809183
:101D90007A00826080937A0080917A0081608093DB
:101DA0007A0080917A00806880937A001092C10056
:101DB00081EC80937C0088B18E6088B987B18E6099
:101DC00087B98BB18C618BB98AB18C6F8AB98BB1B1
:101DD000806E8BB91092B90088E48093B8000E949D
:101DE000BF0580E00E94B505CCE8D6E01C2F115E4F
:101DF000FE0184910E94B50521961C13F9CF84E958
:101E00008093BC008091BC0084FDFCCF81E0809376
:101E1000B80080E480937C0080917A008064809395
:101E20007A0080917A0086FDFCCF609178008091E5
:101E3000790070E0782B072E000C880B990B611548
:101E400071058105910511F00E94AD10C0E0DFEF32
:101E500096E4C92ED12C2FE2A22EB12C3EE3832E84
:101E6000912CCC2309F4A8C00E94D0098091B5011F
:101E7000813031F018F0843029F04AC0C0E048C009
:101E8000C1E046C0CC2309F443C0D093B5010E9401
:101E9000F604109299071092980710929B071092DF
:101EA0009A078EE899E00E940E0A8DE899E00E9458
:101EB0000E0A8DE799E00E940E0A85E799E00E94DC
:101EC0000E0A8EE699E00E940E0A8CE599E00E94C7
:101ED0000E0A8BE599E00E940E0A8BE499E00E94BD
:101EE0000E0A8DE897E00E94C90568EC70E080E07A
:101EF00090E00E9459058091B5018F3F19F40E942E
:101F0000D009F9CF68EC70E080E090E00E945905BC
:101F10000E94F604EE24E39407E227E54EE957E039
:101F200061E070E087E290E00E940A0609E225E2A3
:101F300041ED56E067E170E080E090E00E940A0623
:101F400005E027E248EB56E06AE370E081E490E0C8
:101F50000E940A06D0929907C092980707E210E003
:101F600010939B0700939A0783EB96E00E940E0A5A
:101F7000D0929907C0929807B0929B07A0929A07B7
:101F80008DEA96E00E940E0A909299078092980737
:101F9000C11105C010939B0700939A0704C0B0922B
:101FA0009B07A0929A078BEA96E00E940E0A8DE8A2
:101FB00097E00E94C90555CF8091B501843009F0A2
:101FC00053CF81E08093B6010E94A10A0E94360A95
:101FD000C12CD12CD4E087EB91E0CFE0C80F80E09A
:101FE000A82E80E0B82E80918803811139C027EB9C
:101FF00031E080E090E0F901E80FF91FD0830F96FF
:10200000813D41E09407B9F72F5F3F4FC213F1CFF5
:102010008091B701833058F00E94C8070E943F0B9F
:1020200064EF71E080E090E00E945905F1CF0E94DA
:10203000C807E12C08E028E048ED50E068E170E0D6
:1020400088E390E00E940A068DE897E00E94C905A7
:1020500068E873E180E090E00E945905F601099577
:102060000E94D0090E94C8070E943F0BA114B1042E
:1020700009F4B9CF0E940000B6CFE9E8F7E0138277
:1020800012821186128680E1838710861782158658
:1020900084E191E09183808382E291E0958384835F
:1020A000108A1786128A118A81E0838B148A858BA5
:1020B000168A08958F929F92AF92BF92CF92DF922D
:1020C000EF92FF92CF93DF93EC01688179818A814F
:1020D0009B81611571058105910521F464E279ED1B
:1020E0008BE597E02DE133EF41E050E00E94BE1018
:1020F00049015A019B01AC01A7EAB1E40E94DD103D
:102100006B017C01ACEEB4EFA50194010E94EB10D1
:10211000DC01CB018C0D9D1DAE1DBF1DB7FF03C0A3
:102120000197A109B04888839983AA83BB83BC0126
:10213000CD019F77DF91CF91FF90EF90DF90CF900F
:10214000BF90AF909F908F9008950E945A1008956D
:1021500080E091E00E945A1008956093000170930E
:10216000010180930201909303010895F999FECF34
:1021700092BD81BDF89A992780B50895052E97FBE9
:102180001EF400940E94D51057FD07D00E94F01055
:1021900007FC03D04EF40C94D51050954095309523
:1021A00021953F4F4F4F5F4F0895909580957095C3
:1021B00061957F4F8F4F9F4F08950E941211A59FE9
:1021C000900DB49F900DA49F800D911D1124089532
:1021D000B7FF0C94DD100E94DD10821B930B089555
:1021E000A1E21A2EAA1BBB1BFD010DC0AA1FBB1F1B
:1021F000EE1FFF1FA217B307E407F50720F0A21B8D
:10220000B30BE40BF50B661F771F881F991F1A94F9
:1022100069F760957095809590959B01AC01BD0123
:10222000CF010895A29FB001B39FC001A39F700D7D
:10223000811D1124911DB29F700D811D1124911DCE
:102240000895EE0FFF1F0590F491E02D099481E0B1
:0C22500090E0F8940C942C11F894FFCF4F
:10225C000100000070006800900088008000780089
:10226C0000000000A406090595079407560EFCFF14
:10227C000000920EF000E800E000D800D000C8008A
:10228C00C000B800B000A800A00098000D0A000023
:00000001FF
