:100000000C94CC040C94F4040C94F4040C94F404B8
:100010000C94F4040C94F4040C94F4040C94F40480
:100020000C94F4040C94F4040C94F4040C94F40470
:100030000C94F4040C94F4040C94F4040C94F40460
:100040000C94000C0C94F4040C94F4040C94F4043C
:100050000C94F4040C94F4040C94F4040C94F40440
:100060000C94F4040C94F4040D1279DCBCBCFC7800
:100070000C1278DCBCBCFC783C42A9A981817E18BA
:100080003C42A5A581817E183C42959581817E18D0
:100090003C42818181817E1850210A219840840A46
:1000A00000522C2244344A0000102C3A5C340800E0
:1000B000FDFDFDFDFDFD01FF0066FFFFFF7E3C181D
:1000C00080FF3020FF0604FF202020202020205227
:1000D000554E4E45520053454520594F55204147F6
:1000E00041494E20494E204C4F44450020202020BD
:1000F00020202052554E4E45520020424F4D424541
:1001000052204D414E204245434F4D455300434FF1
:100110004E47524154554C4154494F4E53007D2E49
:100120007D3C546A3C287D2E7D3C562A3C287D2E01
:100130007D3C566A3C283C283C3C546A3C283C2880
:100140003C3C562A3C283C283C3C566A3C28BE7421
:10015000BE3C546A3C14BE74BE3C562A3C14BE7469
:10016000BE3C566A3C143C3C3C3C546A3C283C3CFB
:100170003C3C562A3C283C3C3C3C566A3C284C457E
:1001800056454C0001020408102040800000000089
:10019000003E5B4F5B3E3E6B4F6B3E1C3E7C3E1C0D
:1001A000183C7E3C181C577D571C1C5E7F5E1C0053
:1001B000183C1800FFE7C3E7FF0018241800FFE70A
:1001C000DBE7FF30483A060E2629792926407F05CD
:1001D0000507407F05253F5A3CE73C5A7F3E1C1CE3
:1001E00008081C1C3E7F14227F22145F5F005F5FA3
:1001F00006097F017F006689956A6060606060948F
:10020000A2FFA29408047E040810207E2010080893
:100210002A1C08081C2A08081E101010100C1E0C9E
:100220001E0C30383E3830060E3E0E060000000030
:100230000000005F00000007000700147F147F1417
:10024000242A7F2A1223130864623649562050005C
:1002500008070300001C2241000041221C002A1C48
:100260007F1C2A08083E0808008070300008080833
:100270000808000060600020100804023E51494553
:100280003E00427F400072494949462141494D3371
:100290001814127F1027454545393C4A49493141D8
:1002A000211109073649494936464949291E0000A6
:1002B00014000000403400000008142241141414FB
:1002C0001414004122140802015909063E415D59E7
:1002D0004E7C1211127C7F494949363E41414122F0
:1002E0007F4141413E7F494949417F090909013E1A
:1002F000414151737F0808087F00417F4100204041
:10030000413F017F081422417F404040407F021C52
:10031000027F7F0408107F3E4141413E7F09090969
:10032000063E4151215E7F09192946264949493235
:1003300003017F01033F4040403F1F2040201F3FFB
:100340004038403F63140814630304780403615980
:10035000494D43007F4141410204081020004141C2
:10036000417F04020102044040404040000307086E
:100370000020545478407F2844443838444444286A
:10038000384444287F385454541800087E09021811
:10039000A4A49C787F0804047800447D4000204099
:1003A000403D007F1028440000417F40007C0478DD
:1003B00004787C080404783844444438FC18242425
:1003C0001818242418FC7C080404084854545424A5
:1003D00004043F44243C4040207C1C2040201C3C22
:1003E0004030403C44281028444C9090907C446419
:1003F000544C4400083641000000770000004136AC
:10040000080002010204023C2623263C1EA1A16131
:10041000123A4040207A3854545559215555794163
:100420002154547841215554784020545579400C3A
:100430001E5272123955555559395454545939551B
:100440005454580000457C410002457D420001455E
:100450007C40F0292429F0F0282528F07C545545CB
:10046000002054547C547C0A097F4932494949325E
:100470003248484832324A4848303A4141217A3A73
:1004800042402078009DA0A07D39444444393D403D
:1004900040403D3C24FF2424487E4943662B2FFCEA
:1004A0002F2BFF0929F620C0887E09032054547998
:1004B000410000447D413048484A32384040227A69
:1004C000007A0A0A727D0D19317D2629292F2826E6
:1004D0002929292630484D402038080808080808EE
:1004E0000808382F10C8ACBA2F102834FA00007B47
:1004F000000008142A142222142A1408950022004D
:1005000095AA005500AAAA55AA55AA000000FF0006
:10051000101010FF00141414FF001010FF00FF1043
:1005200010F010F0141414FC001414F700FF000075
:10053000FF00FF1414F404FC141417101F10101FF4
:10054000101F1414141F00101010F0000000001FE2
:10055000101010101F10101010F010000000FF10ED
:100560001010101010101010FF10000000FF1400E9
:1005700000FF00FF00001F10170000FC04F414141B
:100580001710171414F404F40000FF00F7141414E7
:1005900014141414F700F7141414171410101F1067
:1005A0001F141414F4141010F010F000001F101F8A
:1005B0000000001F14000000FC140000F010F010F8
:1005C00010FF10FF141414FF141010101F0000006F
:1005D00000F010FFFFFFFFFFF0F0F0F0F0FFFFFF73
:1005E0000000000000FFFF0F0F0F0F0F38444438CA
:1005F000447C2A2A3E147E02020606027E027E0205
:1006000063554941633844443C04407E201E200623
:10061000027E020299A5E7A5991C2A492A1C4C7260
:1006200001724C304A4D4D303048784830BC625AE7
:10063000463D3E494949007E0101017E2A2A2A2A77
:100640002A44445F444440514A444040444A514053
:100650000000FF0103E080FF000008086B6B083614
:1006600012362436060F090F060000181800000085
:100670001010003040FF0101001F01011E00191D74
:100680001712003C3C3C3C0000000000AED5F0A836
:100690003FD300408D14A1C8DA1281CFD9F1DB40DD
:1006A000A4A6AF200021007F2200072A0041424F6C
:1006B000555400504C415900722510945E8A2516FD
:1006C0009448AA3D56F5488A2550954873A4A092AF
:1006D00088000000040000000002000000000A0082
:1006E00000000553F800002EAAA8000055003800AD
:1006F0000031A2A000004000200001E0AAA00001FB
:10070000410030001BA3AAF80015401300000FE0C1
:100710000A000055500A0001BBBA040005555500F7
:10072000000FFFFF800015555540001BBBBB80002C
:1007300015555540006FEFEFE00055555550003B03
:10074000BBBBB0005555555000FFFFFFF800555595
:10075000555000BBBBBBB8005555555000EFEFEFEF
:10076000E80055555550003BBBBBB00055555550A2
:10077000007FFFFFF00015555540003BBBBB8000DC
:1007800015555540000FEFEF80000555550000014D
:10079000BBB800000055500000001FC00000FF0063
:1007A000000030000000000000FF000000300000EA
:1007B00000000000C180000030000000000000C107
:1007C00080000030000000000000C1800000300008
:1007D0000000000000C180000030000000000000A8
:1007E000C1878FFE3F0F8F3FF0F8FCC1878FFE3F20
:1007F0000F8F3FF0F8FCFF1CCE673399CE33198C76
:10080000C6FF1CCE673399CE33198CC6C19CCE6708
:10081000339FCC33187CC6C19CCE6733980C3318F9
:10082000CCC6C19CCE6733980C3318CCC6C19CCEC5
:100830006733980C33198CC6C19CCE6733980C3340
:10084000198CC6C19CCE673399CC33198CC6C19C18
:10085000CE673399CC33198CC6FF078E673F0F8C58
:100860003318FCC6FF078E673F0F8C3318FCC60099
:10087000000000000000000000008A028A020A0A4C
:100880008802088882550504451505041110544452
:1008900080888A222288882208888241144445114F
:1008A0001144111104448088882020880820088879
:1008B00080411444451110041111044480888A2297
:1008C000228808220888824114444511100411101E
:1008D000444480888A02028A8802080882551444A7
:1008E0004511114411110444AA088A2222888A223F
:1008F000088882410505541505051550505480801F
:1009000088A828088828A0A8A84100000010000096
:100910000000000080800000200000000000004176
:1009200000000010000000000000808000000000B7
:100930000000000000550000001000000000000052
:10094000AA00000020000000000000416E79206B2A
:100950006579206261636B2E2E2E000031323831B2
:100960003730323539344071712E636F6D00452D4B
:100970006D61696C004C485720417274004C4857B7
:100980002070726F6772616D6D696E670000203E46
:1009900041626F757400CE0E11241FBECFEFD8E0F8
:1009A000DEBFCDBF11E0A0E0B1E0EEECF2E202C0AC
:1009B00005900D92A034B107D9F727E0A0E4B1E08B
:1009C00001C01D92A13AB207E1F714E0CCECD4E0EB
:1009D00004C02197FE010E945A11CB3CD107C9F7F0
:1009E0000E94EB0E0C9465110C940000813041F0D4
:1009F00050F0823051F0833051F420E09FEF07C077
:100A000020E091E004C02FEF01C021E090E0892FA9
:100A1000990F990B860F911D3FE0389FF001399F88
:100A2000F00D1124E155FE4FE40FF11DE20FF11D11
:100A300027FDFA95908181E0913021F0923011F0FC
:100A4000933009F480E080938A0108952F923F92B9
:100A50004F925F926F927F928F929F92AF92BF92CE
:100A6000CF92DF92EF92FF920F931F93CF93DF937A
:100A7000C12CD12CC0E0D0E021E0AE01B60185E868
:100A800093E00E947D0C2196C034D105A9F72FEF89
:100A9000C21AD20A30E8C316D10461F780918301EB
:100AA0001CEF180FC82ED12C260184E0480E511CD3
:100AB00087E090E01C012C183D08812E012E000CCF
:100AC0009908481459040CF4DDC08091840148EF62
:100AD000F42EF80EE401C20DD31D249753E0CC0F81
:100AE000DD1F5A95E1F790E03C01A9E06A0E711C08
:100AF0006FE0A62EB12CA81AB90A8F2D0F2C000C6E
:100B0000990B681679060CF4BBC0BEE1BF1508F45A
:100B1000B5C01F3008F0B2C02FE0289FF001299F18
:100B2000F00D1124E80DF91DE155FE4F2081233011
:100B300009F453C0E0F42130C9F1223009F09EC01D
:100B400020918001BE01620F711D27FD7A958A0DEB
:100B50009B1D089723E0880F991F2A95E1F7309194
:100B60007F01E12C08E028E040EC50E081C0253016
:100B700009F468C008F44FC0263009F07FC0209106
:100B80008001BE01620F711D27FD7A958A0D9B1DA4
:100B90000897E3E0880F991FEA95E1F730917F010C
:100BA000E12C08E028E048E950E062C02091800193
:100BB000BE01620F711D27FD7A958A0D9B1D089756
:100BC00033E0880F991F3A95E1F730917F01E12CCE
:100BD00008E028E040EB50E04BC0E0914001F0E03D
:100BE000EE0FFF1FEC5FFE4F40815181209180018D
:100BF000BE01620F711D27FD7A958A0D9B1D089716
:100C000003E0880F991F0A95E1F730917F01E12CED
:100C100008E028E02DC020918001BE01620F711D07
:100C200027FD7A958A0D9B1D0897A3E0880F991FD1
:100C3000AA95E1F730917F01E12C08E028E048EA2D
:100C400050E016C020918001BE01620F711D27FD8A
:100C50007A958A0D9B1D0897F3E0880F991FFA95E6
:100C6000E1F730917F01E12C08E028E040EA50E014
:100C7000830F911D37FD9A950E949B0CF3943DCFF5
:100C80001F5F1BCF809140018F5F823018F48093EB
:100C9000400102C01092400180918003882309F432
:100CA00093C04FE9A42E41E0B42EC0E0D0E087E02D
:100CB00090E0DC01AC19BD096D015FE0852E912C3F
:100CC000D501ED915D01EF3FA9F1F0E0EE0FFF1FBF
:100CD000E85FFE4F40815181FE01E557FE4F818163
:100CE000B601680F711D6450710923E0660F771F0C
:100CF0002A95E1F780918001680F711D87FD7A9533
:100D0000208180918401F401E81BF109CF01820F59
:100D1000911D089733E0880F991F3A95E1F73091BC
:100D20007F01E12C08E028E0830F911D37FD9A95A3
:100D30000E949B0C2296C431D10509F0C1CF0E94BC
:100D4000F40B8090850190908601A0908701B0906F
:100D50008801F8E88F0EF3E19F1EA11CB11CE09101
:100D60004101681579058A059B0548F0809182014B
:100D7000F0E023E0829FE00DF11D112408C0E11195
:100D800015C0E091820133E0E39FF0011124EE0FE2
:100D9000FF1FEC5DFE4F40815181E12C08E028E00F
:100DA00068E170E088E390E00E949B0C80918101F3
:100DB00081114BC00E94F40B681579058A059B05CB
:100DC00008F443C010924101C12CD12CC8E3D0E0FB
:100DD00020E0AE01B60185E893E00E947D0C2196EB
:100DE000C034D105A9F78FEFC81AD80A90E8C91600
:100DF000D10461F7C0E080918003C81780F4EE242D
:100E0000E39408E028E048EB50E068E370E0A9E0F4
:100E1000CA9FC00111240E949B0CCF5FECCF85E8D4
:100E200093E0DF91CF911F910F91FF90EF90DF90B2
:100E3000CF90BF90AF909F908F907F906F905F907A
:100E40004F903F902F900C945A0C809141018F5FEE
:100E500080934101833008F0B5CFB6CF3F924F92D7
:100E60005F926F927F928F929F92AF92BF92CF923A
:100E7000DF92EF92FF920F931F93CF93DF9383E064
:100E80008093800382E080938201E2E4F1E0AFE9A5
:100E9000B1E08FEF11921192119211928D9391E026
:100EA000EA36F907B9F73FEAE32E31E0F32EC0E066
:100EB000D12CCC24C39444E0842E912CA12CB12CB1
:100EC0005CE1452E512C612C712C62E0362E87019D
:100ED000D0E0CC2351F0CE3041F0DD2331F0DE31D3
:100EE00021F08D2F8C2B80FD03C0F801C0822CC017
:100EF0000E94E110A50194010E94F710672B682B56
:100F0000692B19F4F80130821FC00E94E110A3017F
:100F100092010E94F710672B682B692B99F480913E
:100F2000AE01D81688F48D2D90E0FC01EE0FFF1F66
:100F3000E557FE4FD083C183FC01E156FE4F30825E
:100F4000D39402C0F8011082DF5F015F1F4FDF31D1
:100F500009F0BFCFCF5FFFEFEF1AFF0ACF3009F0E4
:100F6000B6CF10928702109296021092A5021092AC
:100F70008802109297021092A60210928902109293
:100F800098021092A702C093840187E080938301A6
:100F90000E94F40B60938501709386018093870112
:100FA00090938801DF91CF911F910F91FF90EF9067
:100FB000DF90CF90BF90AF909F908F907F906F9079
:100FC0005F904F903F9008954F925F926F927F9203
:100FD0008F929F92AF92BF92CF92DF92EF92FF9249
:100FE0000F931F93CF93DF931F92CDB7DEB78091FE
:100FF0008003811109C0AFE96A2EA1E07A2EF301C6
:1010000081E09AE0960D72C00E94F40B0091A90154
:101010001091AA012091AB013091AC010C591F4FE6
:101020002F4F3F4F601771078207930720F30E94ED
:10103000F40B6093A9017093AA018093AB01909384
:10104000AC010CE811E06BE8462E61E0562E7FE91A
:10105000E72E71E0F72EE4E08E2E912CA12CB12C1E
:10106000FAE07F2E7E0CD7019D917D019F3FA1F17B
:10107000F801C080D201DC904C2D6D2D892F998311
:101080000E94F60480918A0199818823C9F09130E9
:1010900071F048F0923079F09330F1F4D2018C91F4
:1010A00081508C9319C0CA94F801C08215C0D394A2
:1010B000D201DC9211C0F80180818F5F80830CC067
:1010C0000E94E1106701B1E0CB1AD108A50194019B
:1010D0000E94F710F60160830E5F1F4FF2E04F0E83
:1010E000511C7E10C0CF87CF9E1729F021912F3F32
:1010F000D9F380E0F9CF80938901882309F468C08F
:101100008091AE018A3009F05CC00E94BB0B80E187
:1011100090E0909391038093900310929303109228
:1011200092038EE091E00E94CE0B8AEF90E00E9445
:10113000CE0B8CEE90E00E94CE0B86ED90E00E94EC
:10114000CE0B88EC90E00E94CE0BEE24E39408E0F6
:1011500028E04EE551E060E370E088E390E00E9413
:101160009B0C00E010E058E3E52EF12C21E0A701F4
:10117000B80185E893E00E947D0C2FEFE21AF20A95
:1011800080E4E816F10491F70F5F1F4F0038110556
:1011900051F7C12CD12CE12C08E028E040EC50E0C4
:1011A00068E370E0C6010E949B0CA8E0CA0ED11C47
:1011B000B0E8CB16D10479F785E893E00E945A0C89
:1011C000FFCF8F5F8093AE010E94240E0E942E07F6
:1011D0008FEA91E046E055E06FE0680FFC012FE1F7
:1011E0003081343011F4508307C0353011F440831E
:1011F00003C0363009F4108221503F962111F0CF00
:1012000001966813EBCF80918003882309F4B8C15D
:1012100000E010E04FE0F42EEE24EA94F801E557E8
:10122000FE4FC080D180FC9CF0011124ED0DF11D1A
:10123000E155FE4F8081843028F0F30180818F3F9B
:1012400009F0E0820E94F40B809085019090860165
:10125000A0908701B0908801F8E88F0EF3E19F1EFF
:10126000A11CB11C681579058A059B0528F1E09140
:10127000840180918301EC1106C08D1104C0D3015B
:101280009C919F3F51F4FE9EF0011124E80FF11D47
:10129000E155FE4F8081843078F080918003815049
:1012A000809380030E94F40B609385017093860104
:1012B00080938701909388010E5F1F4FBFEF6B1AD9
:1012C0007B0A0431110509F0A9CF0091AD0102306C
:1012D00009F455C028F4002351F0013059F1C9C078
:1012E000033009F46FC0043009F492C0C2C01092F8
:1012F000820110918301412F6091840180E00E945E
:10130000F604123008F4B5C080918A01882309F4EC
:10131000B0C081E0809381018093800100918001C1
:10132000083034F40E9426050D5F00938001F6CF4B
:10133000115022C082E08093820110918301412FDD
:10134000609184010E94F6041D3008F092C08091E3
:101350008A01882309F48DC0009381018FEF809367
:10136000800100918001093F34F00E94260503505E
:1013700000938001F6CF1F5F109383017AC083E052
:10138000809382011091840140918301612F0E941A
:10139000F604123008F46DC080918A01882309F4A4
:1013A00068C081E08093810180937F0100917F017B
:1013B000083034F40E9426050D5F00937F01F6CFBC
:1013C000115023C001E000938201109184014091EB
:1013D0008301612F81E00E94F6041D3108F049C0AD
:1013E00080918A01882309F444C0009381018FEF22
:1013F00080937F0100917F01093F34F00E94260510
:10140000035000937F01F6CF1F5F1093840131C01A
:1014100030917E013A3068F590918401809183018A
:101420002FE0929FF0011124E80FF11DE155FE4FCE
:1014300020812330F1F03F5F30937E01032F10E0D5
:1014400001501109D801AA0FBB1FA659BE4F9C938A
:1014500011968C9383E080830E94F40B000F111F80
:10146000000F111FF801EE5BFE4F608371838283D2
:10147000938380918101882331F010927F01109233
:10148000800110928101F0907E01FF2009F478C064
:101490000E94F40B009142011091430120914401FC
:1014A000309145010854144F2F4F3F4F601771077B
:1014B0008207930708F464C090916A01E0916B0180
:1014C000F0E0DF018FE0989FA00DB11D1124A15520
:1014D000BE4F84E08C93AFE09A9FC00111249F011E
:1014E000280F391F21553E4F40E050E074E0DA01EB
:1014F0001F97A20FB31F6C916D7F613009F07C9331
:10150000415F5F4F4D32510591F7E80FF91FE255EA
:10151000FE4F80E090E044E05081513041F0DC012A
:101520001F97A20FB31F5C91533009F0408331968F
:101530000F968D32910581F7FA94F0927E01EAE6DA
:10154000F1E002E411E080E032968F15C8F490815A
:101550009F0122503109D9019C9391812F5F3F4F08
:10156000D9019C93D80114964D915D916D917C9118
:1015700017974D935D936D937D938D018F5FE4CFAE
:101580000F90DF91CF911F910F91FF90EF90DF901F
:10159000CF90BF90AF909F908F907F906F905F9013
:1015A0004F9008958FEF8093AD010E944A0C87FD04
:1015B0001092AD010E944A0C84FF03C081E0809329
:1015C000AD010E944A0C85FF03C082E08093AD010B
:1015D0000E944A0C86FF03C083E08093AD010E9405
:1015E0004A0C83FF03C084E08093AD010E944A0C43
:1015F00082FF03C085E08093AD010895CF92DF9212
:10160000EF92FF920F931F93CF93DF936C017A01B8
:101610008B01C0E0D0E0CE15DF0589F0D8016D91D7
:101620008D01D601ED91FC910190F081E02DC60174
:101630000995892B11F47E0102C02196ECCFC701D8
:10164000DF91CF911F910F91FF90EF90DF90CF909E
:1016500008953FB7F89480919D0390919E03A091C7
:101660009F03B091A00326B5A89B05C02F3F19F09A
:101670000196A11DB11D3FBFBA2FA92F982F882712
:10168000820F911DA11DB11DBC01CD0142E0660F6D
:10169000771F881F991F4A95D1F708958F929F92BF
:1016A000AF92BF92CF92DF92EF92FF926B017C01DB
:1016B0000E94290B4B015C01C114D104E104F10427
:1016C000F1F00E94290BDC01CB0188199909AA09C4
:1016D000BB09883E9340A105B10570F321E0C21A11
:1016E000D108E108F10888EE880E83E0981EA11C5D
:1016F000B11CC114D104E104F10419F7DDCFFF904E
:10170000EF90DF90CF90BF90AF909F908F90089513
:1017100068EE73E080E090E00C944E0B8093BB0089
:1017200084E88093BC008091BC0087FFFCCF0895C3
:1017300084EA8093BC008091BC0087FFFCCF88E7DF
:101740000C948E0B0895089580E090E00895009722
:1017500069F0FC0101900020E9F73197AF01481BC7
:10176000590BBC0181E893E00C94FE0A80E090E004
:1017700008950E94601180E0E1EAF3E081118FEFAB
:10178000002481938193819381930394D1F7E1E8BD
:10179000F3E0128A118A108A178608950F931F9317
:1017A000CF93DF938C01C0E0D0E0F801EC0FFD1F78
:1017B0006491662371F0E0918103F09182030190BE
:1017C000F081E02D81E893E00995892B11F02196B5
:1017D000ECCF8CE391E00E94A70B8C0F9D1FDF9153
:1017E000CF911F910F9108952FB7F89460919903AD
:1017F00070919A0380919B0390919C032FBF089551
:101800001F920F920FB60F9211242F933F938F9335
:101810009F93AF93BF938091990390919A03A09166
:101820009B03B0919C033091980323E0230F2D3745
:1018300020F40196A11DB11D05C026E8230F0296D4
:10184000A11DB11D209398038093990390939A034F
:10185000A0939B03B0939C0380919D0390919E0362
:10186000A0919F03B091A0030196A11DB11D80938B
:101870009D0390939E03A0939F03B093A003BF91F9
:10188000AF919F918F913F912F910F900FBE0F902D
:101890001F901895339902C080E801C080E04A9BF0
:1018A0008061319B80624B9B80644C9B8860329B43
:1018B000846008950E94980B80E48093BB0084E8C4
:1018C0008093BC00E1EAF3E09091BC0097FFFCCF6D
:1018D00091919093BB008093BC0097E0E13AF907A7
:1018E00099F78091BC0087FFFCCF84E98093BC000E
:1018F0008091BC0084FDFCCF089560387105D0F460
:1019000040345105B8F4E4E8F1E080E1849FD0016F
:10191000A0781124A60F4770E40FF11D8491AF55F4
:10192000BC4F222319F06C91862B03C080956C91DB
:1019300086238C9308952F923F924F925F926F92DD
:101940007F928F929F92AF92BF92CF92DF92EF924F
:10195000FF920F931F93CF93DF9300D000D01F927D
:10196000CDB7DEB7C22ED12C9C012C0D3D1D37FD0D
:1019700064C0803891050CF060C010E09B01200F1E
:10198000311F37FD5AC0603471050CF056C03E2D32
:101990003A012B011C01C6010796AC0193E0559555
:1019A00047959A95E1F75A834983A12CB12CE12CF4
:1019B000F12CE016F1060CF040C01D821C8247019C
:1019C000840C951C4C815D814C155D0574F5EC8192
:1019D000FD8183E0F595E7958A95E1F7EA0DFB1D1A
:1019E000E60DF71DE491F0E08C819D8187709927C9
:1019F00040E850E002C0559547958A95E2F7E42308
:101A0000F523EF2B61F0232FA4016C817D81620D02
:101A1000731D85E893E03B830E947D0C3B818C81A4
:101A20009D8101969D838C83CDCF5FEFE51AF50AEA
:101A300089819A81A80EB91EBCCF0F900F900F908C
:101A40000F900F90DF91CF911F910F91FF90EF902A
:101A5000DF90CF90BF90AF909F908F907F906F90CE
:101A60005F904F903F902F9008952F923F924F920A
:101A70005F926F927F928F929F92AF92BF92CF921E
:101A8000DF92EF92FF920F931F93CF93DF93CDB727
:101A9000DEB729970FB6F894DEBF0FBECDBFFC01AD
:101AA0006A3069F425898189928938E0239F800D05
:101AB000911D1124928B818B108A1786AAC06D30DC
:101AC00009F4A7C099878887F588348823886188B6
:101AD00072880785108900381105C4F0A885B9857A
:101AE00055962C915597422F50E01F968D919C91C1
:101AF0005097B6E02B9F800D911D1124E885F98544
:101B0000908B8787268921116EC083C0F0E46F1601
:101B1000710424F7C80125E0F29E800D911D112467
:101B200018161906DCF68F2D90E09C838B83C30179
:101B3000A8E0FA9E800D911D11241816190674F65E
:101B4000B5E06B9FB0011124FB01E457FE4FFA830F
:101B5000E98330E08885998504969E838D83E981A9
:101B6000FA81E490353009F4E12C430188E0482EF5
:101B7000E0FC02C0532C01C0522C51100BC032109B
:101B800009C0E6944A948B819C81880E991E41106D
:101B9000EFCF1BC068018C2D801B8F1590F754016F
:101BA0008A2D88198F1568F4252DA501B6018D8120
:101BB0009E813F830E947D0C9FEFA91AB90A3F8145
:101BC000EFCFAFEFCA1ADA0AE6CF3F5FEB81FC81B5
:101BD0000E0F1F1F89819A8101969A83898336305F
:101BE00009F0BDCF7BCF6AEF64039001659F300D94
:101BF000112420583F4F281739075CF4A885B98570
:101C0000ED91FC9111970190F081E02D6AE0CD01FA
:101C1000099581E090E029960FB6F894DEBF0FBEDB
:101C2000CDBFDF91CF911F910F91FF90EF90DF908B
:101C3000CF90BF90AF909F908F907F906F905F906C
:101C40004F903F902F900895CF92DF92EF92FF92A6
:101C50000F931F93CF93DF93CDB7DEB7A1970FB646
:101C6000F894DEBF0FBECDBF0E94BB0B84E390E0B3
:101C7000909391038093900380E190E0909393037D
:101C8000809392038EE791E00E94CE0B80E490E077
:101C9000909391038093900380E290E0909393035C
:101CA000809392032091AE0130E040E050E019A211
:101CB0008E010F5D1F4F8AE0C82ED12CE12CF12C34
:101CC000CA01B901A70196010E942911605DF801BE
:101CD00062938F01211531054105510589F7CF0127
:101CE0000E94A70B8CE391E00E94A70B85E893E08C
:101CF0000E945A0C68EE73E080E090E00E944E0B68
:101D0000A1960FB6F894DEBF0FBECDBFDF91CF9185
:101D10001F910F91FF90EF90DF90CF9008950F9358
:101D20001F93CF93DF93EC0181E090E00E94EF10CE
:101D300080FF2CC08AE090E00E94EF109FEF980F88
:101D40009E3F20F522E330E0388B2F8728E330E0F8
:101D50003A8B298B0BE010E0E881F9810190F0814A
:101D6000E02D682FCE010995C8010E94EF100F5F8A
:101D70001F4F0131110581F7CE0104960E945A0CC4
:101D8000DF91CF911F910F910C94880BDF91CF9130
:101D90001F910F91089504970C948F0EE1E8F3E0E2
:101DA000138212821186128680E183871086178241
:101DB000158684E191E09183808382E291E09583AE
:101DC0008483108A1786128A118A81E0838B148A91
:101DD000858B168A0895789484B5826084BD84B515
:101DE000816084BD85B5826085BD85B5816085BD16
:101DF00080916E00816080936E00109281008091CE
:101E00008100826080938100809181008160809355
:101E10008100809180008160809380008091B1007A
:101E200084608093B1008091B00081608093B000A5
:101E300080917A00846080937A0080917A00826039
:101E400080937A0080917A00816080937A008091FB
:101E50007A00806880937A001092C10081EC8093B0
:101E60007C0088B18E6088B987B18E6087B98BB1EC
:101E70008C618BB98AB18C6F8AB98BB1806E8BB94A
:101E80001092B90088E48093B8000E94980B80E01B
:101E90000E948E0BCCE8D6E01C2F115EFE018491CF
:101EA0000E948E0B21961C13F9CF84E98093BC000D
:101EB0008091BC0084FDFCCF81E08093B80080E479
:101EC00080937C0080917A00806480937A00809176
:101ED0007A0086FDFCCF609178008091790070E0F7
:101EE000782B072E000C880B990B61157105810565
:101EF000910511F00E94E610C0E0DFEF96E4C92ED4
:101F0000D12C2FE2A22EB12C3EE3832E912CCC2398
:101F100009F4A8C00E94D20A8091AD01813031F04D
:101F200018F0843029F04AC0C0E048C0C1E046C083
:101F3000CC2309F443C0D093AD010E94BB0B109297
:101F400091031092900310929303109292038EE8E3
:101F500099E00E94CE0B8DE899E00E94CE0B8DE7B0
:101F600099E00E94CE0B85E799E00E94CE0B8EE6A9
:101F700099E00E94CE0B8CE599E00E94CE0B8BE598
:101F800099E00E94CE0B8BE499E00E94CE0B85E88D
:101F900093E00E945A0C68EC70E080E090E00E94B0
:101FA0004E0B8091AD018F3F19F40E94D20AF9CFF8
:101FB00068EC70E080E090E00E944E0B0E94BB0B4A
:101FC000EE24E39407E227E54EE957E061E070E094
:101FD00087E290E00E949B0C09E225E241ED56E089
:101FE00067E170E080E090E00E949B0C05E027E252
:101FF00048EB56E06AE370E081E490E00E949B0CBD
:10200000D0929103C092900307E210E010939303E3
:102010000093920383EB96E00E94CE0BD092910343
:10202000C0929003B0929303A09292038DEA96E03F
:102030000E94CE0B9092910380929003C11105C033
:10204000109393030093920304C0B0929303A09261
:1020500092038BEA96E00E94CE0B85E893E00E9403
:102060005A0C55CF8091AD01843009F053CF81E0F7
:102070008093AE010E94240E0E942E07C12CD12C09
:10208000D4E08FEA91E0CFE0C80F80E0A82E80E096
:10209000B82E80918003811139C02FEA31E080E0B1
:1020A00090E0F901E80FF91FD0830F96813D41E0E0
:1020B0009407B9F72F5F3F4FC213F1CF8091AF0163
:1020C000833058F00E9426050E94E40764EF71E017
:1020D00080E090E00E944E0BF1CF0E942605E12C9B
:1020E00008E028E04EE551E068E170E088E390E028
:1020F0000E949B0C85E893E00E945A0C68E873E10B
:1021000080E090E00E944E0BF60109950E94D20AF1
:102110000E9426050E94E407A114B10409F4B9CF76
:102120000E940000B6CF8F929F92AF92BF92CF9243
:10213000DF92EF92FF92CF93DF93EC016881798178
:102140008A819B81611571058105910521F464E205
:1021500079ED8BE597E02DE133EF41E050E00E940F
:10216000F71049015A019B01AC01A7EAB1E40E94B2
:1021700016116B017C01ACEEB4EFA50194010E9435
:102180002411DC01CB018C0D9D1DAE1DBF1DB7FFC1
:1021900003C00197A109B04888839983AA83BB83B0
:1021A000BC01CD019F77DF91CF91FF90EF90DF9041
:1021B000CF90BF90AF909F908F9008950E94931002
:1021C000089580E091E00E949310089560930001CB
:1021D0007093010180930201909303010895F9998E
:1021E000FECF92BD81BDF89A992780B50895052E3E
:1021F00097FB1EF400940E940E1157FD07D00E9419
:10220000291107FC03D04EF40C940E115095409503
:10221000309521953F4F4F4F5F4F08959095809592
:10222000709561957F4F8F4F9F4F08950E944B117E
:10223000A59F900DB49F900DA49F800D911D11241A
:102240000895B7FF0C9416110E941611821B930B70
:102250000895A1E21A2EAA1BBB1BFD010DC0AA1FE7
:10226000BB1FEE1FFF1FA217B307E407F50720F0FF
:10227000A21BB30BE40BF50B661F771F881F991F7A
:102280001A9469F760957095809590959B01AC01C3
:10229000BD01CF010895A29FB001B39FC001A39FCC
:1022A000700D811D1124911DB29F700D811D11248F
:1022B000911D0895EE0FFF1F0590F491E02D0994F4
:0E22C00081E090E0F8940C946511F894FFCF43
:1022CE000100000070006800900088008000780017
:1022DE0000000000350DFE0AA40BA30B8F0EFCFFB1
:1022EE000000CB0E76016E0166015E0156014E01B5
:1022FE0046013E0136012E0126011E010D0A000087
:00000001FF
